{
  "contractName": "Escrow",
  "abi": [
    {
      "constant": false,
      "inputs": [
        {
          "name": "caller",
          "type": "address"
        }
      ],
      "name": "refundToBuyer",
      "outputs": [],
      "payable": false,
      "stateMutability": "nonpayable",
      "type": "function"
    },
    {
      "constant": true,
      "inputs": [],
      "name": "seller",
      "outputs": [
        {
          "name": "",
          "type": "address"
        }
      ],
      "payable": false,
      "stateMutability": "view",
      "type": "function"
    },
    {
      "constant": false,
      "inputs": [
        {
          "name": "caller",
          "type": "address"
        }
      ],
      "name": "releaseToSeller",
      "outputs": [],
      "payable": false,
      "stateMutability": "nonpayable",
      "type": "function"
    },
    {
      "constant": true,
      "inputs": [],
      "name": "buyer",
      "outputs": [
        {
          "name": "",
          "type": "address"
        }
      ],
      "payable": false,
      "stateMutability": "view",
      "type": "function"
    },
    {
      "constant": true,
      "inputs": [],
      "name": "amount",
      "outputs": [
        {
          "name": "",
          "type": "uint256"
        }
      ],
      "payable": false,
      "stateMutability": "view",
      "type": "function"
    },
    {
      "constant": true,
      "inputs": [],
      "name": "productId",
      "outputs": [
        {
          "name": "",
          "type": "uint256"
        }
      ],
      "payable": false,
      "stateMutability": "view",
      "type": "function"
    },
    {
      "constant": true,
      "inputs": [],
      "name": "fundsDisbursed",
      "outputs": [
        {
          "name": "",
          "type": "bool"
        }
      ],
      "payable": false,
      "stateMutability": "view",
      "type": "function"
    },
    {
      "constant": true,
      "inputs": [],
      "name": "escrowInfo",
      "outputs": [
        {
          "name": "",
          "type": "address"
        },
        {
          "name": "",
          "type": "address"
        },
        {
          "name": "",
          "type": "bool"
        }
      ],
      "payable": false,
      "stateMutability": "view",
      "type": "function"
    },
    {
      "inputs": [
        {
          "name": "_productId",
          "type": "uint256"
        },
        {
          "name": "_buyer",
          "type": "address"
        },
        {
          "name": "_seller",
          "type": "address"
        }
      ],
      "payable": true,
      "stateMutability": "payable",
      "type": "constructor"
    },
    {
      "anonymous": false,
      "inputs": [
        {
          "indexed": false,
          "name": "_productId",
          "type": "uint256"
        },
        {
          "indexed": false,
          "name": "_buyer",
          "type": "address"
        },
        {
          "indexed": false,
          "name": "_seller",
          "type": "address"
        }
      ],
      "name": "CreateEscrow",
      "type": "event"
    }
  ],
  "bytecode": "0x6060604052604051606080610740833981016040528080519060200190919080519060200190919080519060200190919050508260008190555081600160006101000a81548173ffffffffffffffffffffffffffffffffffffffff021916908373ffffffffffffffffffffffffffffffffffffffff16021790555080600260006101000a81548173ffffffffffffffffffffffffffffffffffffffff021916908373ffffffffffffffffffffffffffffffffffffffff160217905550346003819055506000600460006101000a81548160ff0219169083151502179055507f9e162ec4c9c0745e1a6d90cb006f54311db99223242f6d7cec1672892ed07e20838383604051808481526020018373ffffffffffffffffffffffffffffffffffffffff1673ffffffffffffffffffffffffffffffffffffffff1681526020018273ffffffffffffffffffffffffffffffffffffffff1673ffffffffffffffffffffffffffffffffffffffff168152602001935050505060405180910390a15050506105b28061018e6000396000f30060606040526004361061008e576000357c0100000000000000000000000000000000000000000000000000000000900463ffffffff16806307cc09a11461009357806308551a53146100cc57806350bb8731146101215780637150d8ae1461015a578063aa8c217c146101af578063c5ce3911146101d8578063d1a52e3014610201578063f3d259041461022e575b600080fd5b341561009e57600080fd5b6100ca600480803573ffffffffffffffffffffffffffffffffffffffff169060200190919050506102c1565b005b34156100d757600080fd5b6100df6103bb565b604051808273ffffffffffffffffffffffffffffffffffffffff1673ffffffffffffffffffffffffffffffffffffffff16815260200191505060405180910390f35b341561012c57600080fd5b610158600480803573ffffffffffffffffffffffffffffffffffffffff169060200190919050506103e1565b005b341561016557600080fd5b61016d6104db565b604051808273ffffffffffffffffffffffffffffffffffffffff1673ffffffffffffffffffffffffffffffffffffffff16815260200191505060405180910390f35b34156101ba57600080fd5b6101c2610501565b6040518082815260200191505060405180910390f35b34156101e357600080fd5b6101eb610507565b6040518082815260200191505060405180910390f35b341561020c57600080fd5b61021461050d565b604051808215151515815260200191505060405180910390f35b341561023957600080fd5b610241610520565b604051808473ffffffffffffffffffffffffffffffffffffffff1673ffffffffffffffffffffffffffffffffffffffff1681526020018373ffffffffffffffffffffffffffffffffffffffff1673ffffffffffffffffffffffffffffffffffffffff16815260200182151515158152602001935050505060405180910390f35b600460009054906101000a900460ff161515156102dd57600080fd5b600260009054906101000a900473ffffffffffffffffffffffffffffffffffffffff1673ffffffffffffffffffffffffffffffffffffffff168173ffffffffffffffffffffffffffffffffffffffff1614151561033957600080fd5b600160009054906101000a900473ffffffffffffffffffffffffffffffffffffffff1673ffffffffffffffffffffffffffffffffffffffff166108fc6003549081150290604051600060405180830381858888f19350505050151561039d57600080fd5b6001600460006101000a81548160ff02191690831515021790555050565b600260009054906101000a900473ffffffffffffffffffffffffffffffffffffffff1681565b600460009054906101000a900460ff161515156103fd57600080fd5b600160009054906101000a900473ffffffffffffffffffffffffffffffffffffffff1673ffffffffffffffffffffffffffffffffffffffff168173ffffffffffffffffffffffffffffffffffffffff1614151561045957600080fd5b600260009054906101000a900473ffffffffffffffffffffffffffffffffffffffff1673ffffffffffffffffffffffffffffffffffffffff166108fc6003549081150290604051600060405180830381858888f1935050505015156104bd57600080fd5b6001600460006101000a81548160ff02191690831515021790555050565b600160009054906101000a900473ffffffffffffffffffffffffffffffffffffffff1681565b60035481565b60005481565b600460009054906101000a900460ff1681565b6000806000600160009054906101000a900473ffffffffffffffffffffffffffffffffffffffff16600260009054906101000a900473ffffffffffffffffffffffffffffffffffffffff16600460009054906101000a900460ff169250925092509091925600a165627a7a7230582050ea72d90653bfcc0d45bee22ee918d3d67345e1b900f5edcc1ac92a2a42cd320029",
  "source": "pragma solidity ^0.4.18;\n\n\ncontract Escrow {\n    uint public productId;\n    address public buyer;\n    address public seller;\n    uint public amount;\n    bool public fundsDisbursed;\n\n    event CreateEscrow(uint _productId, address _buyer, address _seller);\n\n    /* constructor that creates the escrow contract */\n    function Escrow(uint _productId, address _buyer, address _seller) public payable {\n        productId = _productId;\n        buyer = _buyer;\n        seller = _seller;\n        amount = msg.value;\n        fundsDisbursed = false;\n        CreateEscrow(_productId, _buyer, _seller);\n    }\n\n    /* get info on the escrow that's created */\n    function escrowInfo() public view returns (address, address, bool) {\n        return (buyer, seller, fundsDisbursed);\n    }\n\n    /* if buyer approves, release funds  */\n    function releaseToSeller(address caller) public {\n        require(!fundsDisbursed);\n        require(caller == buyer);\n\n        seller.transfer(amount);\n        fundsDisbursed = true;\n    }\n\n    /* if the sale is not approved the funds get refunded to buyer */\n    function refundToBuyer(address caller) public {\n        require(!fundsDisbursed);\n        require(caller == seller);\n        \n        buyer.transfer(amount);\n        fundsDisbursed = true;\n    }\n}\n",
  "sourcePath": "/Users/yannickvisbeek/Documents/Studie/BSSA/Final_Project/Marktplaats/contracts/Escrow.sol",
  "compiler": {
    "name": "solc",
    "version": "0.4.18+commit.9cf6e910.Emscripten.clang"
  },
  "schemaVersion": "1.0.1",
  "updatedAt": "2018-01-18T17:14:46.602Z"
}