{
  "contractName": "Escrow",
  "abi": [
    {
      "constant": true,
      "inputs": [],
      "name": "seller",
      "outputs": [
        {
          "name": "",
          "type": "address"
        }
      ],
      "payable": false,
      "stateMutability": "view",
      "type": "function"
    },
    {
      "constant": false,
      "inputs": [],
      "name": "refundToBuyer",
      "outputs": [
        {
          "name": "",
          "type": "bool"
        }
      ],
      "payable": false,
      "stateMutability": "nonpayable",
      "type": "function"
    },
    {
      "constant": true,
      "inputs": [],
      "name": "buyer",
      "outputs": [
        {
          "name": "",
          "type": "address"
        }
      ],
      "payable": false,
      "stateMutability": "view",
      "type": "function"
    },
    {
      "constant": false,
      "inputs": [],
      "name": "releaseToSeller",
      "outputs": [
        {
          "name": "",
          "type": "bool"
        }
      ],
      "payable": false,
      "stateMutability": "nonpayable",
      "type": "function"
    },
    {
      "constant": true,
      "inputs": [],
      "name": "amount",
      "outputs": [
        {
          "name": "",
          "type": "uint256"
        }
      ],
      "payable": false,
      "stateMutability": "view",
      "type": "function"
    },
    {
      "constant": true,
      "inputs": [],
      "name": "productId",
      "outputs": [
        {
          "name": "",
          "type": "uint256"
        }
      ],
      "payable": false,
      "stateMutability": "view",
      "type": "function"
    },
    {
      "constant": true,
      "inputs": [],
      "name": "fundsDisbursed",
      "outputs": [
        {
          "name": "",
          "type": "bool"
        }
      ],
      "payable": false,
      "stateMutability": "view",
      "type": "function"
    },
    {
      "constant": true,
      "inputs": [],
      "name": "escrowInfo",
      "outputs": [
        {
          "name": "",
          "type": "address"
        },
        {
          "name": "",
          "type": "address"
        },
        {
          "name": "",
          "type": "bool"
        }
      ],
      "payable": false,
      "stateMutability": "view",
      "type": "function"
    },
    {
      "inputs": [
        {
          "name": "_productId",
          "type": "uint256"
        },
        {
          "name": "_buyer",
          "type": "address"
        },
        {
          "name": "_seller",
          "type": "address"
        }
      ],
      "payable": true,
      "stateMutability": "payable",
      "type": "constructor"
    }
  ],
  "bytecode": "0x606060405260405160608061062d833981016040528080519060200190919080519060200190919080519060200190919050508260008190555081600160006101000a81548173ffffffffffffffffffffffffffffffffffffffff021916908373ffffffffffffffffffffffffffffffffffffffff16021790555080600260006101000a81548173ffffffffffffffffffffffffffffffffffffffff021916908373ffffffffffffffffffffffffffffffffffffffff160217905550346003819055506000600460006101000a81548160ff02191690831515021790555050505061053e806100ef6000396000f30060606040526004361061008e576000357c0100000000000000000000000000000000000000000000000000000000900463ffffffff16806308551a53146100935780634bd7d081146100e85780637150d8ae14610115578063892a0e421461016a578063aa8c217c14610197578063c5ce3911146101c0578063d1a52e30146101e9578063f3d2590414610216575b600080fd5b341561009e57600080fd5b6100a66102a9565b604051808273ffffffffffffffffffffffffffffffffffffffff1673ffffffffffffffffffffffffffffffffffffffff16815260200191505060405180910390f35b34156100f357600080fd5b6100fb6102cf565b604051808215151515815260200191505060405180910390f35b341561012057600080fd5b61012861039b565b604051808273ffffffffffffffffffffffffffffffffffffffff1673ffffffffffffffffffffffffffffffffffffffff16815260200191505060405180910390f35b341561017557600080fd5b61017d6103c1565b604051808215151515815260200191505060405180910390f35b34156101a257600080fd5b6101aa61048d565b6040518082815260200191505060405180910390f35b34156101cb57600080fd5b6101d3610493565b6040518082815260200191505060405180910390f35b34156101f457600080fd5b6101fc610499565b604051808215151515815260200191505060405180910390f35b341561022157600080fd5b6102296104ac565b604051808473ffffffffffffffffffffffffffffffffffffffff1673ffffffffffffffffffffffffffffffffffffffff1681526020018373ffffffffffffffffffffffffffffffffffffffff1673ffffffffffffffffffffffffffffffffffffffff16815260200182151515158152602001935050505060405180910390f35b600260009054906101000a900473ffffffffffffffffffffffffffffffffffffffff1681565b6000600460009054906101000a900460ff161515156102ed57600080fd5b6003543073ffffffffffffffffffffffffffffffffffffffff16311015151561031557600080fd5b600160009054906101000a900473ffffffffffffffffffffffffffffffffffffffff1673ffffffffffffffffffffffffffffffffffffffff166108fc6003549081150290604051600060405180830381858888f19350505050151561037957600080fd5b6001600460006101000a81548160ff0219169083151502179055506001905090565b600160009054906101000a900473ffffffffffffffffffffffffffffffffffffffff1681565b6000600460009054906101000a900460ff161515156103df57600080fd5b6003543073ffffffffffffffffffffffffffffffffffffffff16311015151561040757600080fd5b600260009054906101000a900473ffffffffffffffffffffffffffffffffffffffff1673ffffffffffffffffffffffffffffffffffffffff166108fc6003549081150290604051600060405180830381858888f19350505050151561046b57600080fd5b6001600460006101000a81548160ff0219169083151502179055506001905090565b60035481565b60005481565b600460009054906101000a900460ff1681565b6000806000600160009054906101000a900473ffffffffffffffffffffffffffffffffffffffff16600260009054906101000a900473ffffffffffffffffffffffffffffffffffffffff16600460009054906101000a900460ff169250925092509091925600a165627a7a72305820b147519ca38a6d19754ca913abe1bbecc78d15ccc40573f92b966f742e2c6d2e0029",
  "source": "pragma solidity ^0.4.18;\n\n\ncontract Escrow {\n    uint public productId;\n    address public buyer;\n    address public seller;\n    uint public amount;\n    bool public fundsDisbursed;\n\n    /* constructor that creates the escrow contract */\n    function Escrow(uint _productId, address _buyer, address _seller) public payable {\n        productId = _productId;\n        buyer = _buyer;\n        seller = _seller;\n        amount = msg.value;\n        fundsDisbursed = false;\n    }\n\n    /* get info on the escrow that's created */\n    function escrowInfo() public view returns (address, address, bool) {\n        return (buyer, seller, fundsDisbursed);\n    }\n\n    /* if buyer approves, release funds  */\n    function releaseToSeller() public returns (bool) {\n        require(!fundsDisbursed);\n        /* require(caller == buyer); */\n        require(this.balance >= amount);\n\n        seller.transfer(amount);\n        fundsDisbursed = true;\n\n        return true;\n    }\n\n    /* if the sale is not approved the funds get refunded to buyer */\n    function refundToBuyer() public returns (bool) {\n        require(!fundsDisbursed);\n        /* require(caller == seller); */\n        require(this.balance >= amount);\n\n        buyer.transfer(amount);\n        fundsDisbursed = true;\n\n        return true;\n    }\n}\n",
  "sourcePath": "/Users/yannickvisbeek/Documents/Studie/BSSA/Final_Project/Marktplaats/contracts/Escrow.sol",
  "compiler": {
    "name": "solc",
    "version": "0.4.18+commit.9cf6e910.Emscripten.clang"
  },
  "schemaVersion": "1.0.1",
  "updatedAt": "2018-01-19T10:19:36.611Z"
}