{
  "contractName": "Marketplace",
  "abi": [
    {
      "constant": false,
      "inputs": [
        {
          "name": "_productId",
          "type": "uint256"
        }
      ],
      "name": "closeAuction",
      "outputs": [],
      "payable": false,
      "stateMutability": "nonpayable",
      "type": "function"
    },
    {
      "constant": true,
      "inputs": [
        {
          "name": "_productId",
          "type": "uint256"
        }
      ],
      "name": "totalBids",
      "outputs": [
        {
          "name": "",
          "type": "uint256"
        }
      ],
      "payable": false,
      "stateMutability": "view",
      "type": "function"
    },
    {
      "constant": false,
      "inputs": [
        {
          "name": "_productId",
          "type": "uint256"
        }
      ],
      "name": "releaseToSeller",
      "outputs": [],
      "payable": false,
      "stateMutability": "nonpayable",
      "type": "function"
    },
    {
      "constant": true,
      "inputs": [
        {
          "name": "",
          "type": "address"
        },
        {
          "name": "",
          "type": "uint256"
        }
      ],
      "name": "stores",
      "outputs": [
        {
          "name": "id",
          "type": "uint256"
        },
        {
          "name": "name",
          "type": "string"
        },
        {
          "name": "category",
          "type": "string"
        },
        {
          "name": "imageLink",
          "type": "string"
        },
        {
          "name": "descLink",
          "type": "string"
        },
        {
          "name": "startPrice",
          "type": "uint256"
        },
        {
          "name": "highestBidder",
          "type": "address"
        },
        {
          "name": "highestBid",
          "type": "uint256"
        },
        {
          "name": "totalBids",
          "type": "uint256"
        },
        {
          "name": "status",
          "type": "uint8"
        },
        {
          "name": "condition",
          "type": "uint8"
        }
      ],
      "payable": false,
      "stateMutability": "view",
      "type": "function"
    },
    {
      "constant": false,
      "inputs": [
        {
          "name": "_productId",
          "type": "uint256"
        },
        {
          "name": "_amount",
          "type": "uint256"
        }
      ],
      "name": "bid",
      "outputs": [
        {
          "name": "",
          "type": "bool"
        }
      ],
      "payable": true,
      "stateMutability": "payable",
      "type": "function"
    },
    {
      "constant": false,
      "inputs": [
        {
          "name": "_name",
          "type": "string"
        },
        {
          "name": "_category",
          "type": "string"
        },
        {
          "name": "_imageLink",
          "type": "string"
        },
        {
          "name": "_descLink",
          "type": "string"
        },
        {
          "name": "_startPrice",
          "type": "uint256"
        },
        {
          "name": "_productCondition",
          "type": "uint256"
        }
      ],
      "name": "addProduct",
      "outputs": [],
      "payable": false,
      "stateMutability": "nonpayable",
      "type": "function"
    },
    {
      "constant": true,
      "inputs": [
        {
          "name": "_productId",
          "type": "uint256"
        }
      ],
      "name": "escrowAddresForProduct",
      "outputs": [
        {
          "name": "",
          "type": "address"
        }
      ],
      "payable": false,
      "stateMutability": "view",
      "type": "function"
    },
    {
      "constant": true,
      "inputs": [
        {
          "name": "_productId",
          "type": "uint256"
        }
      ],
      "name": "escrowInfo",
      "outputs": [
        {
          "name": "",
          "type": "address"
        },
        {
          "name": "",
          "type": "address"
        },
        {
          "name": "",
          "type": "bool"
        }
      ],
      "payable": false,
      "stateMutability": "view",
      "type": "function"
    },
    {
      "constant": false,
      "inputs": [
        {
          "name": "_productId",
          "type": "uint256"
        }
      ],
      "name": "refundToBuyer",
      "outputs": [],
      "payable": false,
      "stateMutability": "nonpayable",
      "type": "function"
    },
    {
      "constant": true,
      "inputs": [
        {
          "name": "_productId",
          "type": "uint256"
        }
      ],
      "name": "getProduct",
      "outputs": [
        {
          "name": "",
          "type": "uint256"
        },
        {
          "name": "",
          "type": "string"
        },
        {
          "name": "",
          "type": "string"
        },
        {
          "name": "",
          "type": "string"
        },
        {
          "name": "",
          "type": "string"
        },
        {
          "name": "",
          "type": "uint256"
        },
        {
          "name": "",
          "type": "uint8"
        },
        {
          "name": "",
          "type": "uint8"
        },
        {
          "name": "",
          "type": "uint256"
        },
        {
          "name": "",
          "type": "uint256"
        }
      ],
      "payable": false,
      "stateMutability": "view",
      "type": "function"
    },
    {
      "constant": false,
      "inputs": [
        {
          "name": "_productId",
          "type": "uint256"
        }
      ],
      "name": "sendToEscrow",
      "outputs": [],
      "payable": true,
      "stateMutability": "payable",
      "type": "function"
    },
    {
      "constant": true,
      "inputs": [
        {
          "name": "",
          "type": "uint256"
        }
      ],
      "name": "productIdInStore",
      "outputs": [
        {
          "name": "",
          "type": "address"
        }
      ],
      "payable": false,
      "stateMutability": "view",
      "type": "function"
    },
    {
      "constant": true,
      "inputs": [],
      "name": "productIndex",
      "outputs": [
        {
          "name": "",
          "type": "uint256"
        }
      ],
      "payable": false,
      "stateMutability": "view",
      "type": "function"
    },
    {
      "constant": true,
      "inputs": [
        {
          "name": "_productId",
          "type": "uint256"
        }
      ],
      "name": "highestBidderInfo",
      "outputs": [
        {
          "name": "",
          "type": "address"
        },
        {
          "name": "",
          "type": "uint256"
        }
      ],
      "payable": false,
      "stateMutability": "view",
      "type": "function"
    },
    {
      "constant": true,
      "inputs": [
        {
          "name": "",
          "type": "uint256"
        }
      ],
      "name": "productEscrow",
      "outputs": [
        {
          "name": "",
          "type": "address"
        }
      ],
      "payable": false,
      "stateMutability": "view",
      "type": "function"
    },
    {
      "inputs": [],
      "payable": false,
      "stateMutability": "nonpayable",
      "type": "constructor"
    },
    {
      "anonymous": false,
      "inputs": [
        {
          "indexed": false,
          "name": "_productId",
          "type": "uint256"
        },
        {
          "indexed": false,
          "name": "_name",
          "type": "string"
        },
        {
          "indexed": false,
          "name": "_category",
          "type": "string"
        },
        {
          "indexed": false,
          "name": "_imageLink",
          "type": "string"
        },
        {
          "indexed": false,
          "name": "_descLink",
          "type": "string"
        },
        {
          "indexed": false,
          "name": "_startPrice",
          "type": "uint256"
        },
        {
          "indexed": false,
          "name": "_productCondition",
          "type": "uint256"
        }
      ],
      "name": "NewProduct",
      "type": "event"
    },
    {
      "anonymous": false,
      "inputs": [
        {
          "indexed": false,
          "name": "_bidder",
          "type": "address"
        },
        {
          "indexed": false,
          "name": "_productId",
          "type": "uint256"
        },
        {
          "indexed": false,
          "name": "_amount",
          "type": "uint256"
        }
      ],
      "name": "NewBid",
      "type": "event"
    }
  ],
  "bytecode": "0x6060604052341561000f57600080fd5b60008081905550613115806100256000396000f3006060604052600436106100db576000357c0100000000000000000000000000000000000000000000000000000000900463ffffffff168063236ed8f3146100e057806328e3d1901461010357806333e233111461013a57806354121c741461015d578063598647f81461044957806361655e121461048257806362bdc885146105ba578063835605251461061d578063b4050fc8146106be578063b9db15b4146106e1578063baf2e3ad14610907578063c0bc03c81461091f578063c897d5a614610982578063ce818ea9146109ab578063debe417314610a15575b600080fd5b34156100eb57600080fd5b6101016004808035906020019091905050610a78565b005b341561010e57600080fd5b6101246004808035906020019091905050610c05565b6040518082815260200191505060405180910390f35b341561014557600080fd5b61015b600480803590602001909190505061100f565b005b341561016857600080fd5b61019d600480803573ffffffffffffffffffffffffffffffffffffffff169060200190919080359060200190919050506110cd565b604051808c8152602001806020018060200180602001806020018b81526020018a73ffffffffffffffffffffffffffffffffffffffff1673ffffffffffffffffffffffffffffffffffffffff16815260200189815260200188815260200187600281111561020757fe5b60ff16815260200186600181111561021b57fe5b60ff16815260200185810385528f8181546001816001161561010002031660029004815260200191508054600181600116156101000203166002900480156102a45780601f10610279576101008083540402835291602001916102a4565b820191906000526020600020905b81548152906001019060200180831161028757829003601f168201915b505085810384528e8181546001816001161561010002031660029004815260200191508054600181600116156101000203166002900480156103275780601f106102fc57610100808354040283529160200191610327565b820191906000526020600020905b81548152906001019060200180831161030a57829003601f168201915b505085810383528d8181546001816001161561010002031660029004815260200191508054600181600116156101000203166002900480156103aa5780601f1061037f576101008083540402835291602001916103aa565b820191906000526020600020905b81548152906001019060200180831161038d57829003601f168201915b505085810382528c81815460018160011615610100020316600290048152602001915080546001816001161561010002031660029004801561042d5780601f106104025761010080835404028352916020019161042d565b820191906000526020600020905b81548152906001019060200180831161041057829003601f168201915b50509f5050505050505050505050505050505060405180910390f35b610468600480803590602001909190803590602001909190505061116a565b604051808215151515815260200191505060405180910390f35b341561048d57600080fd5b6105b8600480803590602001908201803590602001908080601f0160208091040260200160405190810160405280939291908181526020018383808284378201915050505050509190803590602001908201803590602001908080601f0160208091040260200160405190810160405280939291908181526020018383808284378201915050505050509190803590602001908201803590602001908080601f0160208091040260200160405190810160405280939291908181526020018383808284378201915050505050509190803590602001908201803590602001908080601f01602080910402602001604051908101604052809392919081815260200183838082843782019150505050505091908035906020019091908035906020019091905050611457565b005b34156105c557600080fd5b6105db60048080359060200190919050506118e1565b604051808273ffffffffffffffffffffffffffffffffffffffff1673ffffffffffffffffffffffffffffffffffffffff16815260200191505060405180910390f35b341561062857600080fd5b61063e600480803590602001909190505061191e565b604051808473ffffffffffffffffffffffffffffffffffffffff1673ffffffffffffffffffffffffffffffffffffffff1681526020018373ffffffffffffffffffffffffffffffffffffffff1673ffffffffffffffffffffffffffffffffffffffff16815260200182151515158152602001935050505060405180910390f35b34156106c957600080fd5b6106df60048080359060200190919050506119f6565b005b34156106ec57600080fd5b6107026004808035906020019091905050611ab4565b604051808b8152602001806020018060200180602001806020018a815260200189600281111561072e57fe5b60ff16815260200188600181111561074257fe5b60ff16815260200187815260200186815260200185810385528e818151815260200191508051906020019080838360005b8381101561078e578082015181840152602081019050610773565b50505050905090810190601f1680156107bb5780820380516001836020036101000a031916815260200191505b5085810384528d818151815260200191508051906020019080838360005b838110156107f45780820151818401526020810190506107d9565b50505050905090810190601f1680156108215780820380516001836020036101000a031916815260200191505b5085810383528c818151815260200191508051906020019080838360005b8381101561085a57808201518184015260208101905061083f565b50505050905090810190601f1680156108875780820380516001836020036101000a031916815260200191505b5085810382528b818151815260200191508051906020019080838360005b838110156108c05780820151818401526020810190506108a5565b50505050905090810190601f1680156108ed5780820380516001836020036101000a031916815260200191505b509e50505050505050505050505050505060405180910390f35b61091d6004808035906020019091905050611f3b565b005b341561092a57600080fd5b61094060048080359060200190919050506124c3565b604051808273ffffffffffffffffffffffffffffffffffffffff1673ffffffffffffffffffffffffffffffffffffffff16815260200191505060405180910390f35b341561098d57600080fd5b6109956124f6565b6040518082815260200191505060405180910390f35b34156109b657600080fd5b6109cc60048080359060200190919050506124fc565b604051808373ffffffffffffffffffffffffffffffffffffffff1673ffffffffffffffffffffffffffffffffffffffff1681526020018281526020019250505060405180910390f35b3415610a2057600080fd5b610a36600480803590602001909190505061290d565b604051808273ffffffffffffffffffffffffffffffffffffffff1673ffffffffffffffffffffffffffffffffffffffff16815260200191505060405180910390f35b6000600260006003600085815260200190815260200160002060009054906101000a900473ffffffffffffffffffffffffffffffffffffffff1673ffffffffffffffffffffffffffffffffffffffff1673ffffffffffffffffffffffffffffffffffffffff168152602001908152602001600020600083815260200190815260200160002090503373ffffffffffffffffffffffffffffffffffffffff166003600084815260200190815260200160002060009054906101000a900473ffffffffffffffffffffffffffffffffffffffff1673ffffffffffffffffffffffffffffffffffffffff16141515610b6c57600080fd5b60006002811115610b7957fe5b8160090160009054906101000a900460ff166002811115610b9657fe5b141515610ba257600080fd5b600081600801541415610bda5760028160090160006101000a81548160ff02191690836002811115610bd057fe5b0217905550610c01565b60018160090160006101000a81548160ff02191690836002811115610bfb57fe5b02179055505b5050565b6000610c0f612940565b600260006003600086815260200190815260200160002060009054906101000a900473ffffffffffffffffffffffffffffffffffffffff1673ffffffffffffffffffffffffffffffffffffffff1673ffffffffffffffffffffffffffffffffffffffff1681526020019081526020016000206000848152602001908152602001600020610160604051908101604052908160008201548152602001600182018054600181600116156101000203166002900480601f016020809104026020016040519081016040528092919081815260200182805460018160011615610100020316600290048015610d425780601f10610d1757610100808354040283529160200191610d42565b820191906000526020600020905b815481529060010190602001808311610d2557829003601f168201915b50505050508152602001600282018054600181600116156101000203166002900480601f016020809104026020016040519081016040528092919081815260200182805460018160011615610100020316600290048015610de45780601f10610db957610100808354040283529160200191610de4565b820191906000526020600020905b815481529060010190602001808311610dc757829003601f168201915b50505050508152602001600382018054600181600116156101000203166002900480601f016020809104026020016040519081016040528092919081815260200182805460018160011615610100020316600290048015610e865780601f10610e5b57610100808354040283529160200191610e86565b820191906000526020600020905b815481529060010190602001808311610e6957829003601f168201915b50505050508152602001600482018054600181600116156101000203166002900480601f016020809104026020016040519081016040528092919081815260200182805460018160011615610100020316600290048015610f285780601f10610efd57610100808354040283529160200191610f28565b820191906000526020600020905b815481529060010190602001808311610f0b57829003601f168201915b50505050508152602001600582015481526020016006820160009054906101000a900473ffffffffffffffffffffffffffffffffffffffff1673ffffffffffffffffffffffffffffffffffffffff1673ffffffffffffffffffffffffffffffffffffffff16815260200160078201548152602001600882015481526020016009820160009054906101000a900460ff166002811115610fc357fe5b6002811115610fce57fe5b81526020016009820160019054906101000a900460ff166001811115610ff057fe5b6001811115610ffb57fe5b815250509050806101000151915050919050565b6001600082815260200190815260200160002060009054906101000a900473ffffffffffffffffffffffffffffffffffffffff1673ffffffffffffffffffffffffffffffffffffffff1663892a0e426000604051602001526040518163ffffffff167c0100000000000000000000000000000000000000000000000000000000028152600401602060405180830381600087803b15156110ae57600080fd5b6102c65a03f115156110bf57600080fd5b505050604051805190505050565b60026020528160005260406000206020528060005260406000206000915091505080600001549080600101908060020190806003019080600401908060050154908060060160009054906101000a900473ffffffffffffffffffffffffffffffffffffffff16908060070154908060080154908060090160009054906101000a900460ff16908060090160019054906101000a900460ff1690508b565b600080600260006003600087815260200190815260200160002060009054906101000a900473ffffffffffffffffffffffffffffffffffffffff1673ffffffffffffffffffffffffffffffffffffffff1673ffffffffffffffffffffffffffffffffffffffff168152602001908152602001600020600085815260200190815260200160002090508060050154831180156112085750806007015483115b151561121357600080fd5b600081600a0160003373ffffffffffffffffffffffffffffffffffffffff1673ffffffffffffffffffffffffffffffffffffffff16815260200190815260200160002060000160009054906101000a900473ffffffffffffffffffffffffffffffffffffffff1673ffffffffffffffffffffffffffffffffffffffff1614151561129c57600080fd5b80600701548311156112f557828160070181905550338160060160006101000a81548173ffffffffffffffffffffffffffffffffffffffff021916908373ffffffffffffffffffffffffffffffffffffffff1602179055505b6060604051908101604052803373ffffffffffffffffffffffffffffffffffffffff1681526020018581526020018481525081600a0160003373ffffffffffffffffffffffffffffffffffffffff1673ffffffffffffffffffffffffffffffffffffffff16815260200190815260200160002060008201518160000160006101000a81548173ffffffffffffffffffffffffffffffffffffffff021916908373ffffffffffffffffffffffffffffffffffffffff1602179055506020820151816001015560408201518160020155905050600181600801600082825401925050819055507f87f5b2fe112bf269d30fb8ca9dc0bde0afd0cc39258e13fafd75fe794795bf0e338585604051808473ffffffffffffffffffffffffffffffffffffffff1673ffffffffffffffffffffffffffffffffffffffff168152602001838152602001828152602001935050505060405180910390a1600191505092915050565b61145f612940565b60016000808282540192505081905550610160604051908101604052806000548152602001888152602001878152602001868152602001858152602001848152602001600073ffffffffffffffffffffffffffffffffffffffff1681526020016000815260200160008152602001600060028111156114da57fe5b81526020018360018111156114eb57fe5b60018111156114f657fe5b815250905080600260003373ffffffffffffffffffffffffffffffffffffffff1673ffffffffffffffffffffffffffffffffffffffff1681526020019081526020016000206000805481526020019081526020016000206000820151816000015560208201518160010190805190602001906115739291906129df565b5060408201518160020190805190602001906115909291906129df565b5060608201518160030190805190602001906115ad9291906129df565b5060808201518160040190805190602001906115ca9291906129df565b5060a0820151816005015560c08201518160060160006101000a81548173ffffffffffffffffffffffffffffffffffffffff021916908373ffffffffffffffffffffffffffffffffffffffff16021790555060e0820151816007015561010082015181600801556101208201518160090160006101000a81548160ff0219169083600281111561165657fe5b02179055506101408201518160090160016101000a81548160ff0219169083600181111561168057fe5b021790555090505033600360008054815260200190815260200160002060006101000a81548173ffffffffffffffffffffffffffffffffffffffff021916908373ffffffffffffffffffffffffffffffffffffffff1602179055507f300288586092b66ad7c24104ebade8bd6e712cd39b8ab965d671f857a6b1b566600054888888888888604051808881526020018060200180602001806020018060200187815260200186815260200185810385528b818151815260200191508051906020019080838360005b83811015611763578082015181840152602081019050611748565b50505050905090810190601f1680156117905780820380516001836020036101000a031916815260200191505b5085810384528a818151815260200191508051906020019080838360005b838110156117c95780820151818401526020810190506117ae565b50505050905090810190601f1680156117f65780820380516001836020036101000a031916815260200191505b50858103835289818151815260200191508051906020019080838360005b8381101561182f578082015181840152602081019050611814565b50505050905090810190601f16801561185c5780820380516001836020036101000a031916815260200191505b50858103825288818151815260200191508051906020019080838360005b8381101561189557808201518184015260208101905061187a565b50505050905090810190601f1680156118c25780820380516001836020036101000a031916815260200191505b509b50505050505050505050505060405180910390a150505050505050565b60006001600083815260200190815260200160002060009054906101000a900473ffffffffffffffffffffffffffffffffffffffff169050919050565b60008060006001600085815260200190815260200160002060009054906101000a900473ffffffffffffffffffffffffffffffffffffffff1673ffffffffffffffffffffffffffffffffffffffff1663f3d259046000604051606001526040518163ffffffff167c0100000000000000000000000000000000000000000000000000000000028152600401606060405180830381600087803b15156119c257600080fd5b6102c65a03f115156119d357600080fd5b505050604051805190602001805190602001805190509250925092509193909250565b6001600082815260200190815260200160002060009054906101000a900473ffffffffffffffffffffffffffffffffffffffff1673ffffffffffffffffffffffffffffffffffffffff16634bd7d0816000604051602001526040518163ffffffff167c0100000000000000000000000000000000000000000000000000000000028152600401602060405180830381600087803b1515611a9557600080fd5b6102c65a03f11515611aa657600080fd5b505050604051805190505050565b6000611abe612a5f565b611ac6612a5f565b611ace612a5f565b611ad6612a5f565b6000806000806000611ae6612940565b60026000600360008f815260200190815260200160002060009054906101000a900473ffffffffffffffffffffffffffffffffffffffff1673ffffffffffffffffffffffffffffffffffffffff1673ffffffffffffffffffffffffffffffffffffffff16815260200190815260200160002060008d8152602001908152602001600020610160604051908101604052908160008201548152602001600182018054600181600116156101000203166002900480601f016020809104026020016040519081016040528092919081815260200182805460018160011615610100020316600290048015611c195780601f10611bee57610100808354040283529160200191611c19565b820191906000526020600020905b815481529060010190602001808311611bfc57829003601f168201915b50505050508152602001600282018054600181600116156101000203166002900480601f016020809104026020016040519081016040528092919081815260200182805460018160011615610100020316600290048015611cbb5780601f10611c9057610100808354040283529160200191611cbb565b820191906000526020600020905b815481529060010190602001808311611c9e57829003601f168201915b50505050508152602001600382018054600181600116156101000203166002900480601f016020809104026020016040519081016040528092919081815260200182805460018160011615610100020316600290048015611d5d5780601f10611d3257610100808354040283529160200191611d5d565b820191906000526020600020905b815481529060010190602001808311611d4057829003601f168201915b50505050508152602001600482018054600181600116156101000203166002900480601f016020809104026020016040519081016040528092919081815260200182805460018160011615610100020316600290048015611dff5780601f10611dd457610100808354040283529160200191611dff565b820191906000526020600020905b815481529060010190602001808311611de257829003601f168201915b50505050508152602001600582015481526020016006820160009054906101000a900473ffffffffffffffffffffffffffffffffffffffff1673ffffffffffffffffffffffffffffffffffffffff1673ffffffffffffffffffffffffffffffffffffffff16815260200160078201548152602001600882015481526020016009820160009054906101000a900460ff166002811115611e9a57fe5b6002811115611ea557fe5b81526020016009820160019054906101000a900460ff166001811115611ec757fe5b6001811115611ed257fe5b815250509050806000015181602001518260400151836060015184608001518560a001518661012001518761014001518861010001518960e001518898508797508696508595509a509a509a509a509a509a509a509a509a509a50509193959799509193959799565b611f43612940565b600080600260006003600087815260200190815260200160002060009054906101000a900473ffffffffffffffffffffffffffffffffffffffff1673ffffffffffffffffffffffffffffffffffffffff1673ffffffffffffffffffffffffffffffffffffffff1681526020019081526020016000206000858152602001908152602001600020610160604051908101604052908160008201548152602001600182018054600181600116156101000203166002900480601f0160208091040260200160405190810160405280929190818152602001828054600181600116156101000203166002900480156120795780601f1061204e57610100808354040283529160200191612079565b820191906000526020600020905b81548152906001019060200180831161205c57829003601f168201915b50505050508152602001600282018054600181600116156101000203166002900480601f01602080910402602001604051908101604052809291908181526020018280546001816001161561010002031660029004801561211b5780601f106120f05761010080835404028352916020019161211b565b820191906000526020600020905b8154815290600101906020018083116120fe57829003601f168201915b50505050508152602001600382018054600181600116156101000203166002900480601f0160208091040260200160405190810160405280929190818152602001828054600181600116156101000203166002900480156121bd5780601f10612192576101008083540402835291602001916121bd565b820191906000526020600020905b8154815290600101906020018083116121a057829003601f168201915b50505050508152602001600482018054600181600116156101000203166002900480601f01602080910402602001604051908101604052809291908181526020018280546001816001161561010002031660029004801561225f5780601f106122345761010080835404028352916020019161225f565b820191906000526020600020905b81548152906001019060200180831161224257829003601f168201915b50505050508152602001600582015481526020016006820160009054906101000a900473ffffffffffffffffffffffffffffffffffffffff1673ffffffffffffffffffffffffffffffffffffffff1673ffffffffffffffffffffffffffffffffffffffff16815260200160078201548152602001600882015481526020016009820160009054906101000a900460ff1660028111156122fa57fe5b600281111561230557fe5b81526020016009820160019054906101000a900460ff16600181111561232757fe5b600181111561233257fe5b8152505092506003600085815260200190815260200160002060009054906101000a900473ffffffffffffffffffffffffffffffffffffffff1691503373ffffffffffffffffffffffffffffffffffffffff168360c0015173ffffffffffffffffffffffffffffffffffffffff161415156123ac57600080fd5b600160028111156123b957fe5b83610120015160028111156123ca57fe5b1415156123d657600080fd5b348433846123e2612a73565b808481526020018373ffffffffffffffffffffffffffffffffffffffff1673ffffffffffffffffffffffffffffffffffffffff1681526020018273ffffffffffffffffffffffffffffffffffffffff1673ffffffffffffffffffffffffffffffffffffffff16815260200193505050506040518091039082f080151561246757600080fd5b90509050806001600086815260200190815260200160002060006101000a81548173ffffffffffffffffffffffffffffffffffffffff021916908373ffffffffffffffffffffffffffffffffffffffff16021790555050505050565b60036020528060005260406000206000915054906101000a900473ffffffffffffffffffffffffffffffffffffffff1681565b60005481565b600080612507612940565b600260006003600087815260200190815260200160002060009054906101000a900473ffffffffffffffffffffffffffffffffffffffff1673ffffffffffffffffffffffffffffffffffffffff1673ffffffffffffffffffffffffffffffffffffffff1681526020019081526020016000206000858152602001908152602001600020610160604051908101604052908160008201548152602001600182018054600181600116156101000203166002900480601f01602080910402602001604051908101604052809291908181526020018280546001816001161561010002031660029004801561263a5780601f1061260f5761010080835404028352916020019161263a565b820191906000526020600020905b81548152906001019060200180831161261d57829003601f168201915b50505050508152602001600282018054600181600116156101000203166002900480601f0160208091040260200160405190810160405280929190818152602001828054600181600116156101000203166002900480156126dc5780601f106126b1576101008083540402835291602001916126dc565b820191906000526020600020905b8154815290600101906020018083116126bf57829003601f168201915b50505050508152602001600382018054600181600116156101000203166002900480601f01602080910402602001604051908101604052809291908181526020018280546001816001161561010002031660029004801561277e5780601f106127535761010080835404028352916020019161277e565b820191906000526020600020905b81548152906001019060200180831161276157829003601f168201915b50505050508152602001600482018054600181600116156101000203166002900480601f0160208091040260200160405190810160405280929190818152602001828054600181600116156101000203166002900480156128205780601f106127f557610100808354040283529160200191612820565b820191906000526020600020905b81548152906001019060200180831161280357829003601f168201915b50505050508152602001600582015481526020016006820160009054906101000a900473ffffffffffffffffffffffffffffffffffffffff1673ffffffffffffffffffffffffffffffffffffffff1673ffffffffffffffffffffffffffffffffffffffff16815260200160078201548152602001600882015481526020016009820160009054906101000a900460ff1660028111156128bb57fe5b60028111156128c657fe5b81526020016009820160019054906101000a900460ff1660018111156128e857fe5b60018111156128f357fe5b8152505090508060c001518160e001519250925050915091565b60016020528060005260406000206000915054906101000a900473ffffffffffffffffffffffffffffffffffffffff1681565b610160604051908101604052806000815260200161295c612a83565b8152602001612969612a83565b8152602001612976612a83565b8152602001612983612a83565b815260200160008152602001600073ffffffffffffffffffffffffffffffffffffffff1681526020016000815260200160008152602001600060028111156129c757fe5b8152602001600060018111156129d957fe5b81525090565b828054600181600116156101000203166002900490600052602060002090601f016020900481019282601f10612a2057805160ff1916838001178555612a4e565b82800160010185558215612a4e579182015b82811115612a4d578251825591602001919060010190612a32565b5b509050612a5b9190612a97565b5090565b602060405190810160405280600081525090565b60405161062d80612abd83390190565b602060405190810160405280600081525090565b612ab991905b80821115612ab5576000816000905550600101612a9d565b5090565b905600606060405260405160608061062d833981016040528080519060200190919080519060200190919080519060200190919050508260008190555081600160006101000a81548173ffffffffffffffffffffffffffffffffffffffff021916908373ffffffffffffffffffffffffffffffffffffffff16021790555080600260006101000a81548173ffffffffffffffffffffffffffffffffffffffff021916908373ffffffffffffffffffffffffffffffffffffffff160217905550346003819055506000600460006101000a81548160ff02191690831515021790555050505061053e806100ef6000396000f30060606040526004361061008e576000357c0100000000000000000000000000000000000000000000000000000000900463ffffffff16806308551a53146100935780634bd7d081146100e85780637150d8ae14610115578063892a0e421461016a578063aa8c217c14610197578063c5ce3911146101c0578063d1a52e30146101e9578063f3d2590414610216575b600080fd5b341561009e57600080fd5b6100a66102a9565b604051808273ffffffffffffffffffffffffffffffffffffffff1673ffffffffffffffffffffffffffffffffffffffff16815260200191505060405180910390f35b34156100f357600080fd5b6100fb6102cf565b604051808215151515815260200191505060405180910390f35b341561012057600080fd5b61012861039b565b604051808273ffffffffffffffffffffffffffffffffffffffff1673ffffffffffffffffffffffffffffffffffffffff16815260200191505060405180910390f35b341561017557600080fd5b61017d6103c1565b604051808215151515815260200191505060405180910390f35b34156101a257600080fd5b6101aa61048d565b6040518082815260200191505060405180910390f35b34156101cb57600080fd5b6101d3610493565b6040518082815260200191505060405180910390f35b34156101f457600080fd5b6101fc610499565b604051808215151515815260200191505060405180910390f35b341561022157600080fd5b6102296104ac565b604051808473ffffffffffffffffffffffffffffffffffffffff1673ffffffffffffffffffffffffffffffffffffffff1681526020018373ffffffffffffffffffffffffffffffffffffffff1673ffffffffffffffffffffffffffffffffffffffff16815260200182151515158152602001935050505060405180910390f35b600260009054906101000a900473ffffffffffffffffffffffffffffffffffffffff1681565b6000600460009054906101000a900460ff161515156102ed57600080fd5b6003543073ffffffffffffffffffffffffffffffffffffffff16311015151561031557600080fd5b600160009054906101000a900473ffffffffffffffffffffffffffffffffffffffff1673ffffffffffffffffffffffffffffffffffffffff166108fc6003549081150290604051600060405180830381858888f19350505050151561037957600080fd5b6001600460006101000a81548160ff0219169083151502179055506001905090565b600160009054906101000a900473ffffffffffffffffffffffffffffffffffffffff1681565b6000600460009054906101000a900460ff161515156103df57600080fd5b6003543073ffffffffffffffffffffffffffffffffffffffff16311015151561040757600080fd5b600260009054906101000a900473ffffffffffffffffffffffffffffffffffffffff1673ffffffffffffffffffffffffffffffffffffffff166108fc6003549081150290604051600060405180830381858888f19350505050151561046b57600080fd5b6001600460006101000a81548160ff0219169083151502179055506001905090565b60035481565b60005481565b600460009054906101000a900460ff1681565b6000806000600160009054906101000a900473ffffffffffffffffffffffffffffffffffffffff16600260009054906101000a900473ffffffffffffffffffffffffffffffffffffffff16600460009054906101000a900460ff169250925092509091925600a165627a7a72305820b2ae3105c132fec101e1aaef295745b4ebd535fd09a156b5d19b661381b0ac660029a165627a7a723058201dfd78eedecc03623dc2f8105d4bf109eb07b5e33281db85a9525e11246ad5ca0029",
  "source": "pragma solidity ^0.4.18;\nimport \"contracts/Escrow.sol\";\n\n\ncontract Marketplace {\n    /* ProductStatus[0] == open, ProductStatus[1] == sold etc.. */\n    enum ProductStatus { Open, Sold, Unsold }\n    enum ProductCondition { New, Used }\n\n    uint public productIndex;\n\n    /* every product can have an address to an escrow contract to store a final bid */\n    mapping (uint => address) public productEscrow;\n\n    /* every address can have there own store with listed products, of which every product is a product struct*/\n    /* user adds first product: 0x64fcba11d3dce1e3f781e22ec2b61001d2c652e5 => {1 => \"struct with iphone details\"} */\n    mapping (address => mapping(uint => Product)) public stores;\n\n    /* which products are in whose store */\n    mapping (uint => address) public productIdInStore;\n\n    /* contract constructor */\n    function Marketplace() public {\n        productIndex = 0;\n    }\n\n    /* event to which the server can listen and then copy the data to mongo when a new product is added */\n    event NewProduct(uint _productId, string _name, string _category, string _imageLink, string _descLink,\n        uint _startPrice, uint _productCondition);\n\n    event NewBid(address _bidder, uint _productId, uint _amount);\n\n    struct Product {\n        uint id;\n        string name;\n        string category;\n        string imageLink;\n        string descLink;\n        uint startPrice;\n        address highestBidder;\n        uint highestBid;\n        uint totalBids;\n        ProductStatus status;\n        ProductCondition condition;\n        mapping (address => Bid) bids;\n    }\n\n    /* add new product */\n    function addProduct(string _name, string _category, string _imageLink, string _descLink, uint _startPrice,\n        uint _productCondition) public {\n\n        productIndex += 1;\n\n        /* create new product with arguments as input */\n        Product memory product = Product(productIndex, _name, _category, _imageLink, _descLink, _startPrice, 0, 0, 0,\n        ProductStatus.Open, ProductCondition(_productCondition));\n\n        /* address->productIndex->product */\n        stores[msg.sender][productIndex] = product;\n\n        /* productIndex->address */\n        productIdInStore[productIndex] = msg.sender;\n\n        /* trigger event to let the front-end know that a new product has been added */\n        NewProduct(productIndex, _name, _category, _imageLink, _descLink, _startPrice, _productCondition);\n    }\n\n    function getProduct(uint _productId) public view returns (uint, string, string, string, string, uint,\n        ProductStatus, ProductCondition, uint, uint) {\n\n        /* fist get address with productnumber, then get the product with that address and id */\n        Product memory product = stores[productIdInStore[_productId]][_productId];\n\n        return (product.id, product.name, product.category, product.imageLink, product.descLink,\n        product.startPrice, product.status, product.condition, product.totalBids, product.highestBid);\n    }\n\n    struct Bid {\n        address bidder;\n        uint productId;\n        uint amount;\n    }\n\n    /* bid on a product */\n    function bid(uint _productId, uint _amount) public payable returns (bool) {\n        Product storage product = stores[productIdInStore[_productId]][_productId];\n\n        require(_amount > product.startPrice && _amount > product.highestBid);\n        require(product.bids[msg.sender].bidder == 0);\n\n        if (_amount > product.highestBid) {\n            product.highestBid = _amount;\n            product.highestBidder = msg.sender;\n        }\n\n        product.bids[msg.sender] = Bid(msg.sender, _productId, _amount);\n\n        product.totalBids += 1;\n\n        NewBid(msg.sender, _productId, _amount);\n\n        return true;\n    }\n\n    /* see who is the current hightest bidder with the highest bid */\n    function highestBidderInfo(uint _productId) public view returns (address, uint) {\n        Product memory product = stores[productIdInStore[_productId]][_productId];\n        return (product.highestBidder, product.highestBid);\n    }\n\n    /* return the total number of bids on a product */\n    function totalBids(uint _productId) public view returns (uint) {\n        Product memory product = stores[productIdInStore[_productId]][_productId];\n        return product.totalBids;\n    }\n\n    /* close the auction */\n    function closeAuction(uint _productId) public {\n        Product storage product = stores[productIdInStore[_productId]][_productId];\n\n        require(productIdInStore[_productId] == msg.sender);\n        require(product.status == ProductStatus.Open);\n\n        if (product.totalBids == 0) {\n            product.status = ProductStatus.Unsold;\n        } else {\n            product.status = ProductStatus.Sold;\n\n        }\n    }\n\n    /* if you are the buyer and highestbidder and the contract has been closed, you send the money to the escrow */\n    function sendToEscrow(uint _productId) public payable {\n        Product memory product = stores[productIdInStore[_productId]][_productId];\n\n        var seller = productIdInStore[_productId];\n\n        require(product.highestBidder == msg.sender);\n        require(product.status == ProductStatus.Sold);\n\n        Escrow escrow = (new Escrow).value(msg.value)(_productId, msg.sender, seller);\n        productEscrow[_productId] = address(escrow);\n    }\n\n    /* get the escrow contract address for a product */\n    function escrowAddresForProduct(uint _productId) public view returns (address) {\n        return productEscrow[_productId];\n    }\n\n    /* get all the info on the escrow contract (buyer, seller, fundsDisbursed yes/no) */\n    function escrowInfo(uint _productId) public view returns (address, address, bool) {\n        return Escrow(productEscrow[_productId]).escrowInfo();\n    }\n\n    /* give the funds in the escrow contract to the seller */\n    function releaseToSeller(uint _productId) public {\n        Escrow(productEscrow[_productId]).releaseToSeller();\n    }\n\n    /* refund the funds in the escrow contract to the buyer */\n    function refundToBuyer(uint _productId) public {\n        Escrow(productEscrow[_productId]).refundToBuyer();\n    }\n}\n",
  "sourcePath": "/Users/yannickvisbeek/Documents/Studie/BSSA/Final_Project/Marktplaats/contracts/Marketplace.sol",
  "compiler": {
    "name": "solc",
    "version": "0.4.18+commit.9cf6e910.Emscripten.clang"
  },
  "schemaVersion": "1.0.1",
  "updatedAt": "2018-01-19T12:15:55.491Z"
}