{
  "contractName": "Marketplace",
  "abi": [
    {
      "constant": false,
      "inputs": [
        {
          "name": "_productId",
          "type": "uint256"
        }
      ],
      "name": "closeAuction",
      "outputs": [],
      "payable": false,
      "stateMutability": "nonpayable",
      "type": "function"
    },
    {
      "constant": true,
      "inputs": [
        {
          "name": "_productId",
          "type": "uint256"
        }
      ],
      "name": "totalBids",
      "outputs": [
        {
          "name": "",
          "type": "uint256"
        }
      ],
      "payable": false,
      "stateMutability": "view",
      "type": "function"
    },
    {
      "constant": false,
      "inputs": [
        {
          "name": "_productId",
          "type": "uint256"
        }
      ],
      "name": "releaseToSeller",
      "outputs": [],
      "payable": false,
      "stateMutability": "nonpayable",
      "type": "function"
    },
    {
      "constant": true,
      "inputs": [
        {
          "name": "",
          "type": "address"
        },
        {
          "name": "",
          "type": "uint256"
        }
      ],
      "name": "stores",
      "outputs": [
        {
          "name": "id",
          "type": "uint256"
        },
        {
          "name": "name",
          "type": "string"
        },
        {
          "name": "category",
          "type": "string"
        },
        {
          "name": "imageLink",
          "type": "string"
        },
        {
          "name": "descLink",
          "type": "string"
        },
        {
          "name": "startPrice",
          "type": "uint256"
        },
        {
          "name": "highestBidder",
          "type": "address"
        },
        {
          "name": "highestBid",
          "type": "uint256"
        },
        {
          "name": "totalBids",
          "type": "uint256"
        },
        {
          "name": "status",
          "type": "uint8"
        },
        {
          "name": "condition",
          "type": "uint8"
        }
      ],
      "payable": false,
      "stateMutability": "view",
      "type": "function"
    },
    {
      "constant": false,
      "inputs": [
        {
          "name": "_productId",
          "type": "uint256"
        },
        {
          "name": "_amount",
          "type": "uint256"
        }
      ],
      "name": "bid",
      "outputs": [
        {
          "name": "",
          "type": "bool"
        }
      ],
      "payable": true,
      "stateMutability": "payable",
      "type": "function"
    },
    {
      "constant": false,
      "inputs": [
        {
          "name": "_name",
          "type": "string"
        },
        {
          "name": "_category",
          "type": "string"
        },
        {
          "name": "_imageLink",
          "type": "string"
        },
        {
          "name": "_descLink",
          "type": "string"
        },
        {
          "name": "_startPrice",
          "type": "uint256"
        },
        {
          "name": "_productCondition",
          "type": "uint256"
        }
      ],
      "name": "addProduct",
      "outputs": [],
      "payable": false,
      "stateMutability": "nonpayable",
      "type": "function"
    },
    {
      "constant": true,
      "inputs": [
        {
          "name": "_productId",
          "type": "uint256"
        }
      ],
      "name": "escrowAddresForProduct",
      "outputs": [
        {
          "name": "",
          "type": "address"
        }
      ],
      "payable": false,
      "stateMutability": "view",
      "type": "function"
    },
    {
      "constant": true,
      "inputs": [
        {
          "name": "_productId",
          "type": "uint256"
        }
      ],
      "name": "escrowInfo",
      "outputs": [
        {
          "name": "",
          "type": "address"
        },
        {
          "name": "",
          "type": "address"
        },
        {
          "name": "",
          "type": "bool"
        }
      ],
      "payable": false,
      "stateMutability": "view",
      "type": "function"
    },
    {
      "constant": false,
      "inputs": [
        {
          "name": "_productId",
          "type": "uint256"
        }
      ],
      "name": "refundToBuyer",
      "outputs": [],
      "payable": false,
      "stateMutability": "nonpayable",
      "type": "function"
    },
    {
      "constant": true,
      "inputs": [
        {
          "name": "_productId",
          "type": "uint256"
        }
      ],
      "name": "getProduct",
      "outputs": [
        {
          "name": "",
          "type": "uint256"
        },
        {
          "name": "",
          "type": "string"
        },
        {
          "name": "",
          "type": "string"
        },
        {
          "name": "",
          "type": "string"
        },
        {
          "name": "",
          "type": "string"
        },
        {
          "name": "",
          "type": "uint256"
        },
        {
          "name": "",
          "type": "uint8"
        },
        {
          "name": "",
          "type": "uint8"
        },
        {
          "name": "",
          "type": "uint256"
        },
        {
          "name": "",
          "type": "uint256"
        }
      ],
      "payable": false,
      "stateMutability": "view",
      "type": "function"
    },
    {
      "constant": false,
      "inputs": [
        {
          "name": "_productId",
          "type": "uint256"
        }
      ],
      "name": "sendToEscrow",
      "outputs": [],
      "payable": true,
      "stateMutability": "payable",
      "type": "function"
    },
    {
      "constant": true,
      "inputs": [
        {
          "name": "",
          "type": "uint256"
        }
      ],
      "name": "productIdInStore",
      "outputs": [
        {
          "name": "",
          "type": "address"
        }
      ],
      "payable": false,
      "stateMutability": "view",
      "type": "function"
    },
    {
      "constant": true,
      "inputs": [],
      "name": "productIndex",
      "outputs": [
        {
          "name": "",
          "type": "uint256"
        }
      ],
      "payable": false,
      "stateMutability": "view",
      "type": "function"
    },
    {
      "constant": true,
      "inputs": [
        {
          "name": "_productId",
          "type": "uint256"
        }
      ],
      "name": "highestBidderInfo",
      "outputs": [
        {
          "name": "",
          "type": "address"
        },
        {
          "name": "",
          "type": "uint256"
        }
      ],
      "payable": false,
      "stateMutability": "view",
      "type": "function"
    },
    {
      "constant": true,
      "inputs": [
        {
          "name": "",
          "type": "uint256"
        }
      ],
      "name": "productEscrow",
      "outputs": [
        {
          "name": "",
          "type": "address"
        }
      ],
      "payable": false,
      "stateMutability": "view",
      "type": "function"
    },
    {
      "inputs": [],
      "payable": false,
      "stateMutability": "nonpayable",
      "type": "constructor"
    },
    {
      "anonymous": false,
      "inputs": [
        {
          "indexed": false,
          "name": "_productId",
          "type": "uint256"
        },
        {
          "indexed": false,
          "name": "_name",
          "type": "string"
        },
        {
          "indexed": false,
          "name": "_category",
          "type": "string"
        },
        {
          "indexed": false,
          "name": "_imageLink",
          "type": "string"
        },
        {
          "indexed": false,
          "name": "_descLink",
          "type": "string"
        },
        {
          "indexed": false,
          "name": "_startPrice",
          "type": "uint256"
        },
        {
          "indexed": false,
          "name": "_productCondition",
          "type": "uint256"
        }
      ],
      "name": "NewProduct",
      "type": "event"
    },
    {
      "anonymous": false,
      "inputs": [
        {
          "indexed": false,
          "name": "_bidder",
          "type": "address"
        },
        {
          "indexed": false,
          "name": "_productId",
          "type": "uint256"
        },
        {
          "indexed": false,
          "name": "_amount",
          "type": "uint256"
        }
      ],
      "name": "NewBid",
      "type": "event"
    }
  ],
  "bytecode": "0x6060604052341561000f57600080fd5b60008081905550613274806100256000396000f3006060604052600436106100db576000357c0100000000000000000000000000000000000000000000000000000000900463ffffffff168063236ed8f3146100e057806328e3d1901461010357806333e233111461013a57806354121c741461015d578063598647f81461044957806361655e121461048257806362bdc885146105ba578063835605251461061d578063b4050fc8146106be578063b9db15b4146106e1578063baf2e3ad14610907578063c0bc03c81461091f578063c897d5a614610982578063ce818ea9146109ab578063debe417314610a15575b600080fd5b34156100eb57600080fd5b6101016004808035906020019091905050610a78565b005b341561010e57600080fd5b6101246004808035906020019091905050610c05565b6040518082815260200191505060405180910390f35b341561014557600080fd5b61015b600480803590602001909190505061100f565b005b341561016857600080fd5b61019d600480803573ffffffffffffffffffffffffffffffffffffffff169060200190919080359060200190919050506110f3565b604051808c8152602001806020018060200180602001806020018b81526020018a73ffffffffffffffffffffffffffffffffffffffff1673ffffffffffffffffffffffffffffffffffffffff16815260200189815260200188815260200187600281111561020757fe5b60ff16815260200186600181111561021b57fe5b60ff16815260200185810385528f8181546001816001161561010002031660029004815260200191508054600181600116156101000203166002900480156102a45780601f10610279576101008083540402835291602001916102a4565b820191906000526020600020905b81548152906001019060200180831161028757829003601f168201915b505085810384528e8181546001816001161561010002031660029004815260200191508054600181600116156101000203166002900480156103275780601f106102fc57610100808354040283529160200191610327565b820191906000526020600020905b81548152906001019060200180831161030a57829003601f168201915b505085810383528d8181546001816001161561010002031660029004815260200191508054600181600116156101000203166002900480156103aa5780601f1061037f576101008083540402835291602001916103aa565b820191906000526020600020905b81548152906001019060200180831161038d57829003601f168201915b505085810382528c81815460018160011615610100020316600290048152602001915080546001816001161561010002031660029004801561042d5780601f106104025761010080835404028352916020019161042d565b820191906000526020600020905b81548152906001019060200180831161041057829003601f168201915b50509f5050505050505050505050505050505060405180910390f35b6104686004808035906020019091908035906020019091905050611190565b604051808215151515815260200191505060405180910390f35b341561048d57600080fd5b6105b8600480803590602001908201803590602001908080601f0160208091040260200160405190810160405280939291908181526020018383808284378201915050505050509190803590602001908201803590602001908080601f0160208091040260200160405190810160405280939291908181526020018383808284378201915050505050509190803590602001908201803590602001908080601f0160208091040260200160405190810160405280939291908181526020018383808284378201915050505050509190803590602001908201803590602001908080601f0160208091040260200160405190810160405280939291908181526020018383808284378201915050505050509190803590602001909190803590602001909190505061147d565b005b34156105c557600080fd5b6105db6004808035906020019091905050611907565b604051808273ffffffffffffffffffffffffffffffffffffffff1673ffffffffffffffffffffffffffffffffffffffff16815260200191505060405180910390f35b341561062857600080fd5b61063e6004808035906020019091905050611944565b604051808473ffffffffffffffffffffffffffffffffffffffff1673ffffffffffffffffffffffffffffffffffffffff1681526020018373ffffffffffffffffffffffffffffffffffffffff1673ffffffffffffffffffffffffffffffffffffffff16815260200182151515158152602001935050505060405180910390f35b34156106c957600080fd5b6106df6004808035906020019091905050611a1c565b005b34156106ec57600080fd5b6107026004808035906020019091905050611b00565b604051808b8152602001806020018060200180602001806020018a815260200189600281111561072e57fe5b60ff16815260200188600181111561074257fe5b60ff16815260200187815260200186815260200185810385528e818151815260200191508051906020019080838360005b8381101561078e578082015181840152602081019050610773565b50505050905090810190601f1680156107bb5780820380516001836020036101000a031916815260200191505b5085810384528d818151815260200191508051906020019080838360005b838110156107f45780820151818401526020810190506107d9565b50505050905090810190601f1680156108215780820380516001836020036101000a031916815260200191505b5085810383528c818151815260200191508051906020019080838360005b8381101561085a57808201518184015260208101905061083f565b50505050905090810190601f1680156108875780820380516001836020036101000a031916815260200191505b5085810382528b818151815260200191508051906020019080838360005b838110156108c05780820151818401526020810190506108a5565b50505050905090810190601f1680156108ed5780820380516001836020036101000a031916815260200191505b509e50505050505050505050505050505060405180910390f35b61091d6004808035906020019091905050611f87565b005b341561092a57600080fd5b610940600480803590602001909190505061250f565b604051808273ffffffffffffffffffffffffffffffffffffffff1673ffffffffffffffffffffffffffffffffffffffff16815260200191505060405180910390f35b341561098d57600080fd5b610995612542565b6040518082815260200191505060405180910390f35b34156109b657600080fd5b6109cc6004808035906020019091905050612548565b604051808373ffffffffffffffffffffffffffffffffffffffff1673ffffffffffffffffffffffffffffffffffffffff1681526020018281526020019250505060405180910390f35b3415610a2057600080fd5b610a366004808035906020019091905050612959565b604051808273ffffffffffffffffffffffffffffffffffffffff1673ffffffffffffffffffffffffffffffffffffffff16815260200191505060405180910390f35b6000600260006003600085815260200190815260200160002060009054906101000a900473ffffffffffffffffffffffffffffffffffffffff1673ffffffffffffffffffffffffffffffffffffffff1673ffffffffffffffffffffffffffffffffffffffff168152602001908152602001600020600083815260200190815260200160002090503373ffffffffffffffffffffffffffffffffffffffff166003600084815260200190815260200160002060009054906101000a900473ffffffffffffffffffffffffffffffffffffffff1673ffffffffffffffffffffffffffffffffffffffff16141515610b6c57600080fd5b60006002811115610b7957fe5b8160090160009054906101000a900460ff166002811115610b9657fe5b141515610ba257600080fd5b600081600801541415610bda5760028160090160006101000a81548160ff02191690836002811115610bd057fe5b0217905550610c01565b60018160090160006101000a81548160ff02191690836002811115610bfb57fe5b02179055505b5050565b6000610c0f61298c565b600260006003600086815260200190815260200160002060009054906101000a900473ffffffffffffffffffffffffffffffffffffffff1673ffffffffffffffffffffffffffffffffffffffff1673ffffffffffffffffffffffffffffffffffffffff1681526020019081526020016000206000848152602001908152602001600020610160604051908101604052908160008201548152602001600182018054600181600116156101000203166002900480601f016020809104026020016040519081016040528092919081815260200182805460018160011615610100020316600290048015610d425780601f10610d1757610100808354040283529160200191610d42565b820191906000526020600020905b815481529060010190602001808311610d2557829003601f168201915b50505050508152602001600282018054600181600116156101000203166002900480601f016020809104026020016040519081016040528092919081815260200182805460018160011615610100020316600290048015610de45780601f10610db957610100808354040283529160200191610de4565b820191906000526020600020905b815481529060010190602001808311610dc757829003601f168201915b50505050508152602001600382018054600181600116156101000203166002900480601f016020809104026020016040519081016040528092919081815260200182805460018160011615610100020316600290048015610e865780601f10610e5b57610100808354040283529160200191610e86565b820191906000526020600020905b815481529060010190602001808311610e6957829003601f168201915b50505050508152602001600482018054600181600116156101000203166002900480601f016020809104026020016040519081016040528092919081815260200182805460018160011615610100020316600290048015610f285780601f10610efd57610100808354040283529160200191610f28565b820191906000526020600020905b815481529060010190602001808311610f0b57829003601f168201915b50505050508152602001600582015481526020016006820160009054906101000a900473ffffffffffffffffffffffffffffffffffffffff1673ffffffffffffffffffffffffffffffffffffffff1673ffffffffffffffffffffffffffffffffffffffff16815260200160078201548152602001600882015481526020016009820160009054906101000a900460ff166002811115610fc357fe5b6002811115610fce57fe5b81526020016009820160019054906101000a900460ff166001811115610ff057fe5b6001811115610ffb57fe5b815250509050806101000151915050919050565b6001600082815260200190815260200160002060009054906101000a900473ffffffffffffffffffffffffffffffffffffffff1673ffffffffffffffffffffffffffffffffffffffff166350bb8731336040518263ffffffff167c0100000000000000000000000000000000000000000000000000000000028152600401808273ffffffffffffffffffffffffffffffffffffffff1673ffffffffffffffffffffffffffffffffffffffff168152602001915050600060405180830381600087803b15156110dc57600080fd5b6102c65a03f115156110ed57600080fd5b50505050565b60026020528160005260406000206020528060005260406000206000915091505080600001549080600101908060020190806003019080600401908060050154908060060160009054906101000a900473ffffffffffffffffffffffffffffffffffffffff16908060070154908060080154908060090160009054906101000a900460ff16908060090160019054906101000a900460ff1690508b565b600080600260006003600087815260200190815260200160002060009054906101000a900473ffffffffffffffffffffffffffffffffffffffff1673ffffffffffffffffffffffffffffffffffffffff1673ffffffffffffffffffffffffffffffffffffffff1681526020019081526020016000206000858152602001908152602001600020905080600501548311801561122e5750806007015483115b151561123957600080fd5b600081600a0160003373ffffffffffffffffffffffffffffffffffffffff1673ffffffffffffffffffffffffffffffffffffffff16815260200190815260200160002060000160009054906101000a900473ffffffffffffffffffffffffffffffffffffffff1673ffffffffffffffffffffffffffffffffffffffff161415156112c257600080fd5b806007015483111561131b57828160070181905550338160060160006101000a81548173ffffffffffffffffffffffffffffffffffffffff021916908373ffffffffffffffffffffffffffffffffffffffff1602179055505b6060604051908101604052803373ffffffffffffffffffffffffffffffffffffffff1681526020018581526020018481525081600a0160003373ffffffffffffffffffffffffffffffffffffffff1673ffffffffffffffffffffffffffffffffffffffff16815260200190815260200160002060008201518160000160006101000a81548173ffffffffffffffffffffffffffffffffffffffff021916908373ffffffffffffffffffffffffffffffffffffffff1602179055506020820151816001015560408201518160020155905050600181600801600082825401925050819055507f87f5b2fe112bf269d30fb8ca9dc0bde0afd0cc39258e13fafd75fe794795bf0e338585604051808473ffffffffffffffffffffffffffffffffffffffff1673ffffffffffffffffffffffffffffffffffffffff168152602001838152602001828152602001935050505060405180910390a1600191505092915050565b61148561298c565b60016000808282540192505081905550610160604051908101604052806000548152602001888152602001878152602001868152602001858152602001848152602001600073ffffffffffffffffffffffffffffffffffffffff16815260200160008152602001600081526020016000600281111561150057fe5b815260200183600181111561151157fe5b600181111561151c57fe5b815250905080600260003373ffffffffffffffffffffffffffffffffffffffff1673ffffffffffffffffffffffffffffffffffffffff168152602001908152602001600020600080548152602001908152602001600020600082015181600001556020820151816001019080519060200190611599929190612a2b565b5060408201518160020190805190602001906115b6929190612a2b565b5060608201518160030190805190602001906115d3929190612a2b565b5060808201518160040190805190602001906115f0929190612a2b565b5060a0820151816005015560c08201518160060160006101000a81548173ffffffffffffffffffffffffffffffffffffffff021916908373ffffffffffffffffffffffffffffffffffffffff16021790555060e0820151816007015561010082015181600801556101208201518160090160006101000a81548160ff0219169083600281111561167c57fe5b02179055506101408201518160090160016101000a81548160ff021916908360018111156116a657fe5b021790555090505033600360008054815260200190815260200160002060006101000a81548173ffffffffffffffffffffffffffffffffffffffff021916908373ffffffffffffffffffffffffffffffffffffffff1602179055507f300288586092b66ad7c24104ebade8bd6e712cd39b8ab965d671f857a6b1b566600054888888888888604051808881526020018060200180602001806020018060200187815260200186815260200185810385528b818151815260200191508051906020019080838360005b8381101561178957808201518184015260208101905061176e565b50505050905090810190601f1680156117b65780820380516001836020036101000a031916815260200191505b5085810384528a818151815260200191508051906020019080838360005b838110156117ef5780820151818401526020810190506117d4565b50505050905090810190601f16801561181c5780820380516001836020036101000a031916815260200191505b50858103835289818151815260200191508051906020019080838360005b8381101561185557808201518184015260208101905061183a565b50505050905090810190601f1680156118825780820380516001836020036101000a031916815260200191505b50858103825288818151815260200191508051906020019080838360005b838110156118bb5780820151818401526020810190506118a0565b50505050905090810190601f1680156118e85780820380516001836020036101000a031916815260200191505b509b50505050505050505050505060405180910390a150505050505050565b60006001600083815260200190815260200160002060009054906101000a900473ffffffffffffffffffffffffffffffffffffffff169050919050565b60008060006001600085815260200190815260200160002060009054906101000a900473ffffffffffffffffffffffffffffffffffffffff1673ffffffffffffffffffffffffffffffffffffffff1663f3d259046000604051606001526040518163ffffffff167c0100000000000000000000000000000000000000000000000000000000028152600401606060405180830381600087803b15156119e857600080fd5b6102c65a03f115156119f957600080fd5b505050604051805190602001805190602001805190509250925092509193909250565b6001600082815260200190815260200160002060009054906101000a900473ffffffffffffffffffffffffffffffffffffffff1673ffffffffffffffffffffffffffffffffffffffff166307cc09a1336040518263ffffffff167c0100000000000000000000000000000000000000000000000000000000028152600401808273ffffffffffffffffffffffffffffffffffffffff1673ffffffffffffffffffffffffffffffffffffffff168152602001915050600060405180830381600087803b1515611ae957600080fd5b6102c65a03f11515611afa57600080fd5b50505050565b6000611b0a612aab565b611b12612aab565b611b1a612aab565b611b22612aab565b6000806000806000611b3261298c565b60026000600360008f815260200190815260200160002060009054906101000a900473ffffffffffffffffffffffffffffffffffffffff1673ffffffffffffffffffffffffffffffffffffffff1673ffffffffffffffffffffffffffffffffffffffff16815260200190815260200160002060008d8152602001908152602001600020610160604051908101604052908160008201548152602001600182018054600181600116156101000203166002900480601f016020809104026020016040519081016040528092919081815260200182805460018160011615610100020316600290048015611c655780601f10611c3a57610100808354040283529160200191611c65565b820191906000526020600020905b815481529060010190602001808311611c4857829003601f168201915b50505050508152602001600282018054600181600116156101000203166002900480601f016020809104026020016040519081016040528092919081815260200182805460018160011615610100020316600290048015611d075780601f10611cdc57610100808354040283529160200191611d07565b820191906000526020600020905b815481529060010190602001808311611cea57829003601f168201915b50505050508152602001600382018054600181600116156101000203166002900480601f016020809104026020016040519081016040528092919081815260200182805460018160011615610100020316600290048015611da95780601f10611d7e57610100808354040283529160200191611da9565b820191906000526020600020905b815481529060010190602001808311611d8c57829003601f168201915b50505050508152602001600482018054600181600116156101000203166002900480601f016020809104026020016040519081016040528092919081815260200182805460018160011615610100020316600290048015611e4b5780601f10611e2057610100808354040283529160200191611e4b565b820191906000526020600020905b815481529060010190602001808311611e2e57829003601f168201915b50505050508152602001600582015481526020016006820160009054906101000a900473ffffffffffffffffffffffffffffffffffffffff1673ffffffffffffffffffffffffffffffffffffffff1673ffffffffffffffffffffffffffffffffffffffff16815260200160078201548152602001600882015481526020016009820160009054906101000a900460ff166002811115611ee657fe5b6002811115611ef157fe5b81526020016009820160019054906101000a900460ff166001811115611f1357fe5b6001811115611f1e57fe5b815250509050806000015181602001518260400151836060015184608001518560a001518661012001518761014001518861010001518960e001518898508797508696508595509a509a509a509a509a509a509a509a509a509a50509193959799509193959799565b611f8f61298c565b600080600260006003600087815260200190815260200160002060009054906101000a900473ffffffffffffffffffffffffffffffffffffffff1673ffffffffffffffffffffffffffffffffffffffff1673ffffffffffffffffffffffffffffffffffffffff1681526020019081526020016000206000858152602001908152602001600020610160604051908101604052908160008201548152602001600182018054600181600116156101000203166002900480601f0160208091040260200160405190810160405280929190818152602001828054600181600116156101000203166002900480156120c55780601f1061209a576101008083540402835291602001916120c5565b820191906000526020600020905b8154815290600101906020018083116120a857829003601f168201915b50505050508152602001600282018054600181600116156101000203166002900480601f0160208091040260200160405190810160405280929190818152602001828054600181600116156101000203166002900480156121675780601f1061213c57610100808354040283529160200191612167565b820191906000526020600020905b81548152906001019060200180831161214a57829003601f168201915b50505050508152602001600382018054600181600116156101000203166002900480601f0160208091040260200160405190810160405280929190818152602001828054600181600116156101000203166002900480156122095780601f106121de57610100808354040283529160200191612209565b820191906000526020600020905b8154815290600101906020018083116121ec57829003601f168201915b50505050508152602001600482018054600181600116156101000203166002900480601f0160208091040260200160405190810160405280929190818152602001828054600181600116156101000203166002900480156122ab5780601f10612280576101008083540402835291602001916122ab565b820191906000526020600020905b81548152906001019060200180831161228e57829003601f168201915b50505050508152602001600582015481526020016006820160009054906101000a900473ffffffffffffffffffffffffffffffffffffffff1673ffffffffffffffffffffffffffffffffffffffff1673ffffffffffffffffffffffffffffffffffffffff16815260200160078201548152602001600882015481526020016009820160009054906101000a900460ff16600281111561234657fe5b600281111561235157fe5b81526020016009820160019054906101000a900460ff16600181111561237357fe5b600181111561237e57fe5b8152505092506003600085815260200190815260200160002060009054906101000a900473ffffffffffffffffffffffffffffffffffffffff1691503373ffffffffffffffffffffffffffffffffffffffff168360c0015173ffffffffffffffffffffffffffffffffffffffff161415156123f857600080fd5b6001600281111561240557fe5b836101200151600281111561241657fe5b14151561242257600080fd5b3484338461242e612abf565b808481526020018373ffffffffffffffffffffffffffffffffffffffff1673ffffffffffffffffffffffffffffffffffffffff1681526020018273ffffffffffffffffffffffffffffffffffffffff1673ffffffffffffffffffffffffffffffffffffffff16815260200193505050506040518091039082f08015156124b357600080fd5b90509050806001600086815260200190815260200160002060006101000a81548173ffffffffffffffffffffffffffffffffffffffff021916908373ffffffffffffffffffffffffffffffffffffffff16021790555050505050565b60036020528060005260406000206000915054906101000a900473ffffffffffffffffffffffffffffffffffffffff1681565b60005481565b60008061255361298c565b600260006003600087815260200190815260200160002060009054906101000a900473ffffffffffffffffffffffffffffffffffffffff1673ffffffffffffffffffffffffffffffffffffffff1673ffffffffffffffffffffffffffffffffffffffff1681526020019081526020016000206000858152602001908152602001600020610160604051908101604052908160008201548152602001600182018054600181600116156101000203166002900480601f0160208091040260200160405190810160405280929190818152602001828054600181600116156101000203166002900480156126865780601f1061265b57610100808354040283529160200191612686565b820191906000526020600020905b81548152906001019060200180831161266957829003601f168201915b50505050508152602001600282018054600181600116156101000203166002900480601f0160208091040260200160405190810160405280929190818152602001828054600181600116156101000203166002900480156127285780601f106126fd57610100808354040283529160200191612728565b820191906000526020600020905b81548152906001019060200180831161270b57829003601f168201915b50505050508152602001600382018054600181600116156101000203166002900480601f0160208091040260200160405190810160405280929190818152602001828054600181600116156101000203166002900480156127ca5780601f1061279f576101008083540402835291602001916127ca565b820191906000526020600020905b8154815290600101906020018083116127ad57829003601f168201915b50505050508152602001600482018054600181600116156101000203166002900480601f01602080910402602001604051908101604052809291908181526020018280546001816001161561010002031660029004801561286c5780601f106128415761010080835404028352916020019161286c565b820191906000526020600020905b81548152906001019060200180831161284f57829003601f168201915b50505050508152602001600582015481526020016006820160009054906101000a900473ffffffffffffffffffffffffffffffffffffffff1673ffffffffffffffffffffffffffffffffffffffff1673ffffffffffffffffffffffffffffffffffffffff16815260200160078201548152602001600882015481526020016009820160009054906101000a900460ff16600281111561290757fe5b600281111561291257fe5b81526020016009820160019054906101000a900460ff16600181111561293457fe5b600181111561293f57fe5b8152505090508060c001518160e001519250925050915091565b60016020528060005260406000206000915054906101000a900473ffffffffffffffffffffffffffffffffffffffff1681565b61016060405190810160405280600081526020016129a8612acf565b81526020016129b5612acf565b81526020016129c2612acf565b81526020016129cf612acf565b815260200160008152602001600073ffffffffffffffffffffffffffffffffffffffff168152602001600081526020016000815260200160006002811115612a1357fe5b815260200160006001811115612a2557fe5b81525090565b828054600181600116156101000203166002900490600052602060002090601f016020900481019282601f10612a6c57805160ff1916838001178555612a9a565b82800160010185558215612a9a579182015b82811115612a99578251825591602001919060010190612a7e565b5b509050612aa79190612ae3565b5090565b602060405190810160405280600081525090565b60405161074080612b0983390190565b602060405190810160405280600081525090565b612b0591905b80821115612b01576000816000905550600101612ae9565b5090565b9056006060604052604051606080610740833981016040528080519060200190919080519060200190919080519060200190919050508260008190555081600160006101000a81548173ffffffffffffffffffffffffffffffffffffffff021916908373ffffffffffffffffffffffffffffffffffffffff16021790555080600260006101000a81548173ffffffffffffffffffffffffffffffffffffffff021916908373ffffffffffffffffffffffffffffffffffffffff160217905550346003819055506000600460006101000a81548160ff0219169083151502179055507f9e162ec4c9c0745e1a6d90cb006f54311db99223242f6d7cec1672892ed07e20838383604051808481526020018373ffffffffffffffffffffffffffffffffffffffff1673ffffffffffffffffffffffffffffffffffffffff1681526020018273ffffffffffffffffffffffffffffffffffffffff1673ffffffffffffffffffffffffffffffffffffffff168152602001935050505060405180910390a15050506105b28061018e6000396000f30060606040526004361061008e576000357c0100000000000000000000000000000000000000000000000000000000900463ffffffff16806307cc09a11461009357806308551a53146100cc57806350bb8731146101215780637150d8ae1461015a578063aa8c217c146101af578063c5ce3911146101d8578063d1a52e3014610201578063f3d259041461022e575b600080fd5b341561009e57600080fd5b6100ca600480803573ffffffffffffffffffffffffffffffffffffffff169060200190919050506102c1565b005b34156100d757600080fd5b6100df6103bb565b604051808273ffffffffffffffffffffffffffffffffffffffff1673ffffffffffffffffffffffffffffffffffffffff16815260200191505060405180910390f35b341561012c57600080fd5b610158600480803573ffffffffffffffffffffffffffffffffffffffff169060200190919050506103e1565b005b341561016557600080fd5b61016d6104db565b604051808273ffffffffffffffffffffffffffffffffffffffff1673ffffffffffffffffffffffffffffffffffffffff16815260200191505060405180910390f35b34156101ba57600080fd5b6101c2610501565b6040518082815260200191505060405180910390f35b34156101e357600080fd5b6101eb610507565b6040518082815260200191505060405180910390f35b341561020c57600080fd5b61021461050d565b604051808215151515815260200191505060405180910390f35b341561023957600080fd5b610241610520565b604051808473ffffffffffffffffffffffffffffffffffffffff1673ffffffffffffffffffffffffffffffffffffffff1681526020018373ffffffffffffffffffffffffffffffffffffffff1673ffffffffffffffffffffffffffffffffffffffff16815260200182151515158152602001935050505060405180910390f35b600460009054906101000a900460ff161515156102dd57600080fd5b600260009054906101000a900473ffffffffffffffffffffffffffffffffffffffff1673ffffffffffffffffffffffffffffffffffffffff168173ffffffffffffffffffffffffffffffffffffffff1614151561033957600080fd5b600160009054906101000a900473ffffffffffffffffffffffffffffffffffffffff1673ffffffffffffffffffffffffffffffffffffffff166108fc6003549081150290604051600060405180830381858888f19350505050151561039d57600080fd5b6001600460006101000a81548160ff02191690831515021790555050565b600260009054906101000a900473ffffffffffffffffffffffffffffffffffffffff1681565b600460009054906101000a900460ff161515156103fd57600080fd5b600160009054906101000a900473ffffffffffffffffffffffffffffffffffffffff1673ffffffffffffffffffffffffffffffffffffffff168173ffffffffffffffffffffffffffffffffffffffff1614151561045957600080fd5b600260009054906101000a900473ffffffffffffffffffffffffffffffffffffffff1673ffffffffffffffffffffffffffffffffffffffff166108fc6003549081150290604051600060405180830381858888f1935050505015156104bd57600080fd5b6001600460006101000a81548160ff02191690831515021790555050565b600160009054906101000a900473ffffffffffffffffffffffffffffffffffffffff1681565b60035481565b60005481565b600460009054906101000a900460ff1681565b6000806000600160009054906101000a900473ffffffffffffffffffffffffffffffffffffffff16600260009054906101000a900473ffffffffffffffffffffffffffffffffffffffff16600460009054906101000a900460ff169250925092509091925600a165627a7a72305820f27493ebc5abc6a3b351d960b00887ed0106634a438e43995ad493d03ede2f670029a165627a7a72305820bdff2c1c2b61697a117939c8b1a39378bcb30d9b369d8247bc25e6512f9496090029",
  "source": "pragma solidity ^0.4.18;\nimport \"contracts/Escrow.sol\";\n\n\ncontract Marketplace {\n    /* ProductStatus[0] == open, ProductStatus[1] == sold etc.. */\n    enum ProductStatus { Open, Sold, Unsold }\n    enum ProductCondition { New, Used }\n\n    uint public productIndex;\n\n    /* every product can have an address to an escrow contract to store a final bid */\n    mapping (uint => address) public productEscrow;\n\n    /* every address can have there own store with listed products, of which every product is a product struct*/\n    /* user adds first product: 0x64fcba11d3dce1e3f781e22ec2b61001d2c652e5 => {1 => \"struct with iphone details\"} */\n    mapping (address => mapping(uint => Product)) public stores;\n\n    /* which products are in whose store */\n    mapping (uint => address) public productIdInStore;\n\n    /* contract constructor */\n    function Marketplace() public {\n        productIndex = 0;\n    }\n\n    /* event to which the server can listen and then copy the data to mongo when a new product is added */\n    event NewProduct(uint _productId, string _name, string _category, string _imageLink, string _descLink,\n        uint _startPrice, uint _productCondition);\n\n    event NewBid(address _bidder, uint _productId, uint _amount);\n\n    struct Product {\n        uint id;\n        string name;\n        string category;\n        string imageLink;\n        string descLink;\n        uint startPrice;\n        address highestBidder;\n        uint highestBid;\n        uint totalBids;\n        ProductStatus status;\n        ProductCondition condition;\n        mapping (address => Bid) bids;\n    }\n\n    /* add new product */\n    function addProduct(string _name, string _category, string _imageLink, string _descLink, uint _startPrice,\n        uint _productCondition) public {\n\n        productIndex += 1;\n\n        /* create new product with arguments as input */\n        Product memory product = Product(productIndex, _name, _category, _imageLink, _descLink, _startPrice, 0, 0, 0,\n        ProductStatus.Open, ProductCondition(_productCondition));\n\n        /* address->productIndex->product */\n        stores[msg.sender][productIndex] = product;\n\n        /* productIndex->address */\n        productIdInStore[productIndex] = msg.sender;\n\n        /* trigger event to let the front-end know that a new product has been added */\n        NewProduct(productIndex, _name, _category, _imageLink, _descLink, _startPrice, _productCondition);\n    }\n\n    function getProduct(uint _productId) public view returns (uint, string, string, string, string, uint,\n        ProductStatus, ProductCondition, uint, uint) {\n\n        /* fist get address with productnumber, then get the product with that address and id */\n        Product memory product = stores[productIdInStore[_productId]][_productId];\n\n        return (product.id, product.name, product.category, product.imageLink, product.descLink,\n        product.startPrice, product.status, product.condition, product.totalBids, product.highestBid);\n    }\n\n    struct Bid {\n        address bidder;\n        uint productId;\n        uint amount;\n    }\n\n    /* bid on a product */\n    function bid(uint _productId, uint _amount) public payable returns (bool) {\n        Product storage product = stores[productIdInStore[_productId]][_productId];\n\n        require(_amount > product.startPrice && _amount > product.highestBid);\n        require(product.bids[msg.sender].bidder == 0);\n\n        if (_amount > product.highestBid) {\n            product.highestBid = _amount;\n            product.highestBidder = msg.sender;\n        }\n\n        product.bids[msg.sender] = Bid(msg.sender, _productId, _amount);\n\n        product.totalBids += 1;\n\n        NewBid(msg.sender, _productId, _amount);\n\n        return true;\n    }\n\n    /* see who is the current hightest bidder with the highest bid */\n    function highestBidderInfo(uint _productId) public view returns (address, uint) {\n        Product memory product = stores[productIdInStore[_productId]][_productId];\n        return (product.highestBidder, product.highestBid);\n    }\n\n    /* return the total number of bids on a product */\n    function totalBids(uint _productId) public view returns (uint) {\n        Product memory product = stores[productIdInStore[_productId]][_productId];\n        return product.totalBids;\n    }\n\n    /* close the auction */\n    function closeAuction(uint _productId) public {\n        Product storage product = stores[productIdInStore[_productId]][_productId];\n\n        require(productIdInStore[_productId] == msg.sender);\n        require(product.status == ProductStatus.Open);\n\n        if (product.totalBids == 0) {\n            product.status = ProductStatus.Unsold;\n        } else {\n            product.status = ProductStatus.Sold;\n\n        }\n    }\n\n    /* if you are the buyer and highestbidder and the contract has been closed, you send the money to the escrow */\n    function sendToEscrow(uint _productId) public payable {\n        Product memory product = stores[productIdInStore[_productId]][_productId];\n\n        var contractOwner = productIdInStore[_productId];\n\n        require(product.highestBidder == msg.sender);\n        require(product.status == ProductStatus.Sold);\n\n        Escrow escrow = (new Escrow).value(msg.value)(_productId, msg.sender, contractOwner);\n        productEscrow[_productId] = address(escrow);\n    }\n\n    /* get the escrow contract address for a product */\n    function escrowAddresForProduct(uint _productId) public view returns (address) {\n        return productEscrow[_productId];\n    }\n\n    /* get all the info on the escrow contract (buyer, seller, fundsDisbursed yes/no) */\n    function escrowInfo(uint _productId) public view returns (address, address, bool) {\n        return Escrow(productEscrow[_productId]).escrowInfo();\n    }\n\n    /* give the funds in the escrow contract to the seller */\n    function releaseToSeller(uint _productId) public {\n        Escrow(productEscrow[_productId]).releaseToSeller(msg.sender);\n    }\n\n    /* refund the funds in the escrow contract to the buyer */\n    function refundToBuyer(uint _productId) public {\n        Escrow(productEscrow[_productId]).refundToBuyer(msg.sender);\n    }\n}\n",
  "sourcePath": "/Users/yannickvisbeek/Documents/Studie/BSSA/Final_Project/Marktplaats/contracts/Marketplace.sol",
  "compiler": {
    "name": "solc",
    "version": "0.4.18+commit.9cf6e910.Emscripten.clang"
  },
  "schemaVersion": "1.0.1",
  "updatedAt": "2018-01-18T17:14:46.978Z"
}