{
  "contractName": "Marketplace",
  "abi": [
    {
      "constant": false,
      "inputs": [
        {
          "name": "_productId",
          "type": "uint256"
        }
      ],
      "name": "closeAuction",
      "outputs": [],
      "payable": false,
      "stateMutability": "nonpayable",
      "type": "function"
    },
    {
      "constant": true,
      "inputs": [
        {
          "name": "_productId",
          "type": "uint256"
        }
      ],
      "name": "totalBids",
      "outputs": [
        {
          "name": "",
          "type": "uint256"
        }
      ],
      "payable": false,
      "stateMutability": "view",
      "type": "function"
    },
    {
      "constant": false,
      "inputs": [
        {
          "name": "_productId",
          "type": "uint256"
        }
      ],
      "name": "releaseToSeller",
      "outputs": [],
      "payable": false,
      "stateMutability": "nonpayable",
      "type": "function"
    },
    {
      "constant": false,
      "inputs": [
        {
          "name": "_productId",
          "type": "uint256"
        }
      ],
      "name": "bid",
      "outputs": [
        {
          "name": "",
          "type": "bool"
        }
      ],
      "payable": true,
      "stateMutability": "payable",
      "type": "function"
    },
    {
      "constant": true,
      "inputs": [
        {
          "name": "",
          "type": "address"
        },
        {
          "name": "",
          "type": "uint256"
        }
      ],
      "name": "stores",
      "outputs": [
        {
          "name": "id",
          "type": "uint256"
        },
        {
          "name": "name",
          "type": "string"
        },
        {
          "name": "category",
          "type": "string"
        },
        {
          "name": "imageLink",
          "type": "string"
        },
        {
          "name": "descLink",
          "type": "string"
        },
        {
          "name": "startPrice",
          "type": "uint256"
        },
        {
          "name": "highestBidder",
          "type": "address"
        },
        {
          "name": "highestBid",
          "type": "uint256"
        },
        {
          "name": "totalBids",
          "type": "uint256"
        },
        {
          "name": "status",
          "type": "uint8"
        },
        {
          "name": "condition",
          "type": "uint8"
        }
      ],
      "payable": false,
      "stateMutability": "view",
      "type": "function"
    },
    {
      "constant": false,
      "inputs": [
        {
          "name": "_name",
          "type": "string"
        },
        {
          "name": "_category",
          "type": "string"
        },
        {
          "name": "_imageLink",
          "type": "string"
        },
        {
          "name": "_descLink",
          "type": "string"
        },
        {
          "name": "_startPrice",
          "type": "uint256"
        },
        {
          "name": "_productCondition",
          "type": "uint256"
        }
      ],
      "name": "addProduct",
      "outputs": [],
      "payable": false,
      "stateMutability": "nonpayable",
      "type": "function"
    },
    {
      "constant": true,
      "inputs": [
        {
          "name": "_productId",
          "type": "uint256"
        }
      ],
      "name": "escrowAddresForProduct",
      "outputs": [
        {
          "name": "",
          "type": "address"
        }
      ],
      "payable": false,
      "stateMutability": "view",
      "type": "function"
    },
    {
      "constant": true,
      "inputs": [
        {
          "name": "_productId",
          "type": "uint256"
        }
      ],
      "name": "escrowInfo",
      "outputs": [
        {
          "name": "",
          "type": "address"
        },
        {
          "name": "",
          "type": "address"
        },
        {
          "name": "",
          "type": "bool"
        }
      ],
      "payable": false,
      "stateMutability": "view",
      "type": "function"
    },
    {
      "constant": false,
      "inputs": [
        {
          "name": "_productId",
          "type": "uint256"
        }
      ],
      "name": "refundToBuyer",
      "outputs": [],
      "payable": false,
      "stateMutability": "nonpayable",
      "type": "function"
    },
    {
      "constant": true,
      "inputs": [
        {
          "name": "_productId",
          "type": "uint256"
        }
      ],
      "name": "getProduct",
      "outputs": [
        {
          "name": "",
          "type": "uint256"
        },
        {
          "name": "",
          "type": "string"
        },
        {
          "name": "",
          "type": "string"
        },
        {
          "name": "",
          "type": "string"
        },
        {
          "name": "",
          "type": "string"
        },
        {
          "name": "",
          "type": "uint256"
        },
        {
          "name": "",
          "type": "uint8"
        },
        {
          "name": "",
          "type": "uint8"
        },
        {
          "name": "",
          "type": "uint256"
        },
        {
          "name": "",
          "type": "uint256"
        }
      ],
      "payable": false,
      "stateMutability": "view",
      "type": "function"
    },
    {
      "constant": false,
      "inputs": [
        {
          "name": "_productId",
          "type": "uint256"
        }
      ],
      "name": "sendToEscrow",
      "outputs": [],
      "payable": false,
      "stateMutability": "nonpayable",
      "type": "function"
    },
    {
      "constant": true,
      "inputs": [
        {
          "name": "",
          "type": "uint256"
        }
      ],
      "name": "productIdInStore",
      "outputs": [
        {
          "name": "",
          "type": "address"
        }
      ],
      "payable": false,
      "stateMutability": "view",
      "type": "function"
    },
    {
      "constant": true,
      "inputs": [],
      "name": "productIndex",
      "outputs": [
        {
          "name": "",
          "type": "uint256"
        }
      ],
      "payable": false,
      "stateMutability": "view",
      "type": "function"
    },
    {
      "constant": true,
      "inputs": [
        {
          "name": "_productId",
          "type": "uint256"
        }
      ],
      "name": "highestBidderInfo",
      "outputs": [
        {
          "name": "",
          "type": "address"
        },
        {
          "name": "",
          "type": "uint256"
        }
      ],
      "payable": false,
      "stateMutability": "view",
      "type": "function"
    },
    {
      "constant": true,
      "inputs": [
        {
          "name": "",
          "type": "uint256"
        }
      ],
      "name": "productEscrow",
      "outputs": [
        {
          "name": "",
          "type": "address"
        }
      ],
      "payable": false,
      "stateMutability": "view",
      "type": "function"
    },
    {
      "inputs": [],
      "payable": false,
      "stateMutability": "nonpayable",
      "type": "constructor"
    },
    {
      "anonymous": false,
      "inputs": [
        {
          "indexed": false,
          "name": "_productId",
          "type": "uint256"
        },
        {
          "indexed": false,
          "name": "_name",
          "type": "string"
        },
        {
          "indexed": false,
          "name": "_category",
          "type": "string"
        },
        {
          "indexed": false,
          "name": "_imageLink",
          "type": "string"
        },
        {
          "indexed": false,
          "name": "_descLink",
          "type": "string"
        },
        {
          "indexed": false,
          "name": "_startPrice",
          "type": "uint256"
        },
        {
          "indexed": false,
          "name": "_productCondition",
          "type": "uint256"
        }
      ],
      "name": "NewProduct",
      "type": "event"
    },
    {
      "anonymous": false,
      "inputs": [
        {
          "indexed": false,
          "name": "_bidder",
          "type": "address"
        },
        {
          "indexed": false,
          "name": "_productId",
          "type": "uint256"
        },
        {
          "indexed": false,
          "name": "_amount",
          "type": "uint256"
        }
      ],
      "name": "NewBid",
      "type": "event"
    }
  ],
  "bytecode": "0x6060604052341561000f57600080fd5b600080819055506134ed806100256000396000f3006060604052600436106100db576000357c0100000000000000000000000000000000000000000000000000000000900463ffffffff168063236ed8f3146100e057806328e3d1901461010357806333e233111461013a578063454a2ab31461015d57806354121c741461018d57806361655e121461047957806362bdc885146105b15780638356052514610614578063b4050fc8146106b5578063b9db15b4146106d8578063baf2e3ad146108fe578063c0bc03c814610921578063c897d5a614610984578063ce818ea9146109ad578063debe417314610a17575b600080fd5b34156100eb57600080fd5b6101016004808035906020019091905050610a7a565b005b341561010e57600080fd5b6101246004808035906020019091905050610c07565b6040518082815260200191505060405180910390f35b341561014557600080fd5b61015b6004808035906020019091905050611011565b005b61017360048080359060200190919050506110f5565b604051808215151515815260200191505060405180910390f35b341561019857600080fd5b6101cd600480803573ffffffffffffffffffffffffffffffffffffffff169060200190919080359060200190919050506113e1565b604051808c8152602001806020018060200180602001806020018b81526020018a73ffffffffffffffffffffffffffffffffffffffff1673ffffffffffffffffffffffffffffffffffffffff16815260200189815260200188815260200187600281111561023757fe5b60ff16815260200186600181111561024b57fe5b60ff16815260200185810385528f8181546001816001161561010002031660029004815260200191508054600181600116156101000203166002900480156102d45780601f106102a9576101008083540402835291602001916102d4565b820191906000526020600020905b8154815290600101906020018083116102b757829003601f168201915b505085810384528e8181546001816001161561010002031660029004815260200191508054600181600116156101000203166002900480156103575780601f1061032c57610100808354040283529160200191610357565b820191906000526020600020905b81548152906001019060200180831161033a57829003601f168201915b505085810383528d8181546001816001161561010002031660029004815260200191508054600181600116156101000203166002900480156103da5780601f106103af576101008083540402835291602001916103da565b820191906000526020600020905b8154815290600101906020018083116103bd57829003601f168201915b505085810382528c81815460018160011615610100020316600290048152602001915080546001816001161561010002031660029004801561045d5780601f106104325761010080835404028352916020019161045d565b820191906000526020600020905b81548152906001019060200180831161044057829003601f168201915b50509f5050505050505050505050505050505060405180910390f35b341561048457600080fd5b6105af600480803590602001908201803590602001908080601f0160208091040260200160405190810160405280939291908181526020018383808284378201915050505050509190803590602001908201803590602001908080601f0160208091040260200160405190810160405280939291908181526020018383808284378201915050505050509190803590602001908201803590602001908080601f0160208091040260200160405190810160405280939291908181526020018383808284378201915050505050509190803590602001908201803590602001908080601f0160208091040260200160405190810160405280939291908181526020018383808284378201915050505050509190803590602001909190803590602001909190505061147e565b005b34156105bc57600080fd5b6105d26004808035906020019091905050611908565b604051808273ffffffffffffffffffffffffffffffffffffffff1673ffffffffffffffffffffffffffffffffffffffff16815260200191505060405180910390f35b341561061f57600080fd5b6106356004808035906020019091905050611945565b604051808473ffffffffffffffffffffffffffffffffffffffff1673ffffffffffffffffffffffffffffffffffffffff1681526020018373ffffffffffffffffffffffffffffffffffffffff1673ffffffffffffffffffffffffffffffffffffffff16815260200182151515158152602001935050505060405180910390f35b34156106c057600080fd5b6106d66004808035906020019091905050611a1d565b005b34156106e357600080fd5b6106f96004808035906020019091905050611b01565b604051808b8152602001806020018060200180602001806020018a815260200189600281111561072557fe5b60ff16815260200188600181111561073957fe5b60ff16815260200187815260200186815260200185810385528e818151815260200191508051906020019080838360005b8381101561078557808201518184015260208101905061076a565b50505050905090810190601f1680156107b25780820380516001836020036101000a031916815260200191505b5085810384528d818151815260200191508051906020019080838360005b838110156107eb5780820151818401526020810190506107d0565b50505050905090810190601f1680156108185780820380516001836020036101000a031916815260200191505b5085810383528c818151815260200191508051906020019080838360005b83811015610851578082015181840152602081019050610836565b50505050905090810190601f16801561087e5780820380516001836020036101000a031916815260200191505b5085810382528b818151815260200191508051906020019080838360005b838110156108b757808201518184015260208101905061089c565b50505050905090810190601f1680156108e45780820380516001836020036101000a031916815260200191505b509e50505050505050505050505050505060405180910390f35b341561090957600080fd5b61091f6004808035906020019091905050611f88565b005b341561092c57600080fd5b6109426004808035906020019091905050612514565b604051808273ffffffffffffffffffffffffffffffffffffffff1673ffffffffffffffffffffffffffffffffffffffff16815260200191505060405180910390f35b341561098f57600080fd5b610997612547565b6040518082815260200191505060405180910390f35b34156109b857600080fd5b6109ce600480803590602001909190505061254d565b604051808373ffffffffffffffffffffffffffffffffffffffff1673ffffffffffffffffffffffffffffffffffffffff1681526020018281526020019250505060405180910390f35b3415610a2257600080fd5b610a38600480803590602001909190505061295e565b604051808273ffffffffffffffffffffffffffffffffffffffff1673ffffffffffffffffffffffffffffffffffffffff16815260200191505060405180910390f35b6000600260006003600085815260200190815260200160002060009054906101000a900473ffffffffffffffffffffffffffffffffffffffff1673ffffffffffffffffffffffffffffffffffffffff1673ffffffffffffffffffffffffffffffffffffffff168152602001908152602001600020600083815260200190815260200160002090503373ffffffffffffffffffffffffffffffffffffffff166003600084815260200190815260200160002060009054906101000a900473ffffffffffffffffffffffffffffffffffffffff1673ffffffffffffffffffffffffffffffffffffffff16141515610b6e57600080fd5b60006002811115610b7b57fe5b8160090160009054906101000a900460ff166002811115610b9857fe5b141515610ba457600080fd5b600081600801541415610bdc5760028160090160006101000a81548160ff02191690836002811115610bd257fe5b0217905550610c03565b60018160090160006101000a81548160ff02191690836002811115610bfd57fe5b02179055505b5050565b6000610c11612991565b600260006003600086815260200190815260200160002060009054906101000a900473ffffffffffffffffffffffffffffffffffffffff1673ffffffffffffffffffffffffffffffffffffffff1673ffffffffffffffffffffffffffffffffffffffff1681526020019081526020016000206000848152602001908152602001600020610160604051908101604052908160008201548152602001600182018054600181600116156101000203166002900480601f016020809104026020016040519081016040528092919081815260200182805460018160011615610100020316600290048015610d445780601f10610d1957610100808354040283529160200191610d44565b820191906000526020600020905b815481529060010190602001808311610d2757829003601f168201915b50505050508152602001600282018054600181600116156101000203166002900480601f016020809104026020016040519081016040528092919081815260200182805460018160011615610100020316600290048015610de65780601f10610dbb57610100808354040283529160200191610de6565b820191906000526020600020905b815481529060010190602001808311610dc957829003601f168201915b50505050508152602001600382018054600181600116156101000203166002900480601f016020809104026020016040519081016040528092919081815260200182805460018160011615610100020316600290048015610e885780601f10610e5d57610100808354040283529160200191610e88565b820191906000526020600020905b815481529060010190602001808311610e6b57829003601f168201915b50505050508152602001600482018054600181600116156101000203166002900480601f016020809104026020016040519081016040528092919081815260200182805460018160011615610100020316600290048015610f2a5780601f10610eff57610100808354040283529160200191610f2a565b820191906000526020600020905b815481529060010190602001808311610f0d57829003601f168201915b50505050508152602001600582015481526020016006820160009054906101000a900473ffffffffffffffffffffffffffffffffffffffff1673ffffffffffffffffffffffffffffffffffffffff1673ffffffffffffffffffffffffffffffffffffffff16815260200160078201548152602001600882015481526020016009820160009054906101000a900460ff166002811115610fc557fe5b6002811115610fd057fe5b81526020016009820160019054906101000a900460ff166001811115610ff257fe5b6001811115610ffd57fe5b815250509050806101000151915050919050565b6001600082815260200190815260200160002060009054906101000a900473ffffffffffffffffffffffffffffffffffffffff1673ffffffffffffffffffffffffffffffffffffffff166350bb8731336040518263ffffffff167c0100000000000000000000000000000000000000000000000000000000028152600401808273ffffffffffffffffffffffffffffffffffffffff1673ffffffffffffffffffffffffffffffffffffffff168152602001915050600060405180830381600087803b15156110de57600080fd5b6102c65a03f115156110ef57600080fd5b50505050565b600080600260006003600086815260200190815260200160002060009054906101000a900473ffffffffffffffffffffffffffffffffffffffff1673ffffffffffffffffffffffffffffffffffffffff1673ffffffffffffffffffffffffffffffffffffffff168152602001908152602001600020600084815260200190815260200160002090508060050154341180156111935750806007015434115b151561119e57600080fd5b600081600a0160003373ffffffffffffffffffffffffffffffffffffffff1673ffffffffffffffffffffffffffffffffffffffff16815260200190815260200160002060000160009054906101000a900473ffffffffffffffffffffffffffffffffffffffff1673ffffffffffffffffffffffffffffffffffffffff1614151561122757600080fd5b806007015434111561128057348160070181905550338160060160006101000a81548173ffffffffffffffffffffffffffffffffffffffff021916908373ffffffffffffffffffffffffffffffffffffffff1602179055505b6060604051908101604052803373ffffffffffffffffffffffffffffffffffffffff1681526020018481526020013481525081600a0160003373ffffffffffffffffffffffffffffffffffffffff1673ffffffffffffffffffffffffffffffffffffffff16815260200190815260200160002060008201518160000160006101000a81548173ffffffffffffffffffffffffffffffffffffffff021916908373ffffffffffffffffffffffffffffffffffffffff1602179055506020820151816001015560408201518160020155905050600181600801600082825401925050819055507f87f5b2fe112bf269d30fb8ca9dc0bde0afd0cc39258e13fafd75fe794795bf0e338434604051808473ffffffffffffffffffffffffffffffffffffffff1673ffffffffffffffffffffffffffffffffffffffff168152602001838152602001828152602001935050505060405180910390a16001915050919050565b60026020528160005260406000206020528060005260406000206000915091505080600001549080600101908060020190806003019080600401908060050154908060060160009054906101000a900473ffffffffffffffffffffffffffffffffffffffff16908060070154908060080154908060090160009054906101000a900460ff16908060090160019054906101000a900460ff1690508b565b611486612991565b60016000808282540192505081905550610160604051908101604052806000548152602001888152602001878152602001868152602001858152602001848152602001600073ffffffffffffffffffffffffffffffffffffffff16815260200160008152602001600081526020016000600281111561150157fe5b815260200183600181111561151257fe5b600181111561151d57fe5b815250905080600260003373ffffffffffffffffffffffffffffffffffffffff1673ffffffffffffffffffffffffffffffffffffffff16815260200190815260200160002060008054815260200190815260200160002060008201518160000155602082015181600101908051906020019061159a929190612a30565b5060408201518160020190805190602001906115b7929190612a30565b5060608201518160030190805190602001906115d4929190612a30565b5060808201518160040190805190602001906115f1929190612a30565b5060a0820151816005015560c08201518160060160006101000a81548173ffffffffffffffffffffffffffffffffffffffff021916908373ffffffffffffffffffffffffffffffffffffffff16021790555060e0820151816007015561010082015181600801556101208201518160090160006101000a81548160ff0219169083600281111561167d57fe5b02179055506101408201518160090160016101000a81548160ff021916908360018111156116a757fe5b021790555090505033600360008054815260200190815260200160002060006101000a81548173ffffffffffffffffffffffffffffffffffffffff021916908373ffffffffffffffffffffffffffffffffffffffff1602179055507f300288586092b66ad7c24104ebade8bd6e712cd39b8ab965d671f857a6b1b566600054888888888888604051808881526020018060200180602001806020018060200187815260200186815260200185810385528b818151815260200191508051906020019080838360005b8381101561178a57808201518184015260208101905061176f565b50505050905090810190601f1680156117b75780820380516001836020036101000a031916815260200191505b5085810384528a818151815260200191508051906020019080838360005b838110156117f05780820151818401526020810190506117d5565b50505050905090810190601f16801561181d5780820380516001836020036101000a031916815260200191505b50858103835289818151815260200191508051906020019080838360005b8381101561185657808201518184015260208101905061183b565b50505050905090810190601f1680156118835780820380516001836020036101000a031916815260200191505b50858103825288818151815260200191508051906020019080838360005b838110156118bc5780820151818401526020810190506118a1565b50505050905090810190601f1680156118e95780820380516001836020036101000a031916815260200191505b509b50505050505050505050505060405180910390a150505050505050565b60006001600083815260200190815260200160002060009054906101000a900473ffffffffffffffffffffffffffffffffffffffff169050919050565b60008060006001600085815260200190815260200160002060009054906101000a900473ffffffffffffffffffffffffffffffffffffffff1673ffffffffffffffffffffffffffffffffffffffff1663f3d259046000604051606001526040518163ffffffff167c0100000000000000000000000000000000000000000000000000000000028152600401606060405180830381600087803b15156119e957600080fd5b6102c65a03f115156119fa57600080fd5b505050604051805190602001805190602001805190509250925092509193909250565b6001600082815260200190815260200160002060009054906101000a900473ffffffffffffffffffffffffffffffffffffffff1673ffffffffffffffffffffffffffffffffffffffff166307cc09a1336040518263ffffffff167c0100000000000000000000000000000000000000000000000000000000028152600401808273ffffffffffffffffffffffffffffffffffffffff1673ffffffffffffffffffffffffffffffffffffffff168152602001915050600060405180830381600087803b1515611aea57600080fd5b6102c65a03f11515611afb57600080fd5b50505050565b6000611b0b612ab0565b611b13612ab0565b611b1b612ab0565b611b23612ab0565b6000806000806000611b33612991565b60026000600360008f815260200190815260200160002060009054906101000a900473ffffffffffffffffffffffffffffffffffffffff1673ffffffffffffffffffffffffffffffffffffffff1673ffffffffffffffffffffffffffffffffffffffff16815260200190815260200160002060008d8152602001908152602001600020610160604051908101604052908160008201548152602001600182018054600181600116156101000203166002900480601f016020809104026020016040519081016040528092919081815260200182805460018160011615610100020316600290048015611c665780601f10611c3b57610100808354040283529160200191611c66565b820191906000526020600020905b815481529060010190602001808311611c4957829003601f168201915b50505050508152602001600282018054600181600116156101000203166002900480601f016020809104026020016040519081016040528092919081815260200182805460018160011615610100020316600290048015611d085780601f10611cdd57610100808354040283529160200191611d08565b820191906000526020600020905b815481529060010190602001808311611ceb57829003601f168201915b50505050508152602001600382018054600181600116156101000203166002900480601f016020809104026020016040519081016040528092919081815260200182805460018160011615610100020316600290048015611daa5780601f10611d7f57610100808354040283529160200191611daa565b820191906000526020600020905b815481529060010190602001808311611d8d57829003601f168201915b50505050508152602001600482018054600181600116156101000203166002900480601f016020809104026020016040519081016040528092919081815260200182805460018160011615610100020316600290048015611e4c5780601f10611e2157610100808354040283529160200191611e4c565b820191906000526020600020905b815481529060010190602001808311611e2f57829003601f168201915b50505050508152602001600582015481526020016006820160009054906101000a900473ffffffffffffffffffffffffffffffffffffffff1673ffffffffffffffffffffffffffffffffffffffff1673ffffffffffffffffffffffffffffffffffffffff16815260200160078201548152602001600882015481526020016009820160009054906101000a900460ff166002811115611ee757fe5b6002811115611ef257fe5b81526020016009820160019054906101000a900460ff166001811115611f1457fe5b6001811115611f1f57fe5b815250509050806000015181602001518260400151836060015184608001518560a001518661012001518761014001518861010001518960e001518898508797508696508595509a509a509a509a509a509a509a509a509a509a50509193959799509193959799565b611f90612991565b600080600260006003600087815260200190815260200160002060009054906101000a900473ffffffffffffffffffffffffffffffffffffffff1673ffffffffffffffffffffffffffffffffffffffff1673ffffffffffffffffffffffffffffffffffffffff1681526020019081526020016000206000858152602001908152602001600020610160604051908101604052908160008201548152602001600182018054600181600116156101000203166002900480601f0160208091040260200160405190810160405280929190818152602001828054600181600116156101000203166002900480156120c65780601f1061209b576101008083540402835291602001916120c6565b820191906000526020600020905b8154815290600101906020018083116120a957829003601f168201915b50505050508152602001600282018054600181600116156101000203166002900480601f0160208091040260200160405190810160405280929190818152602001828054600181600116156101000203166002900480156121685780601f1061213d57610100808354040283529160200191612168565b820191906000526020600020905b81548152906001019060200180831161214b57829003601f168201915b50505050508152602001600382018054600181600116156101000203166002900480601f01602080910402602001604051908101604052809291908181526020018280546001816001161561010002031660029004801561220a5780601f106121df5761010080835404028352916020019161220a565b820191906000526020600020905b8154815290600101906020018083116121ed57829003601f168201915b50505050508152602001600482018054600181600116156101000203166002900480601f0160208091040260200160405190810160405280929190818152602001828054600181600116156101000203166002900480156122ac5780601f10612281576101008083540402835291602001916122ac565b820191906000526020600020905b81548152906001019060200180831161228f57829003601f168201915b50505050508152602001600582015481526020016006820160009054906101000a900473ffffffffffffffffffffffffffffffffffffffff1673ffffffffffffffffffffffffffffffffffffffff1673ffffffffffffffffffffffffffffffffffffffff16815260200160078201548152602001600882015481526020016009820160009054906101000a900460ff16600281111561234757fe5b600281111561235257fe5b81526020016009820160019054906101000a900460ff16600181111561237457fe5b600181111561237f57fe5b8152505092506003600085815260200190815260200160002060009054906101000a900473ffffffffffffffffffffffffffffffffffffffff1691503373ffffffffffffffffffffffffffffffffffffffff168360c0015173ffffffffffffffffffffffffffffffffffffffff161415156123f957600080fd5b6001600281111561240657fe5b836101200151600281111561241757fe5b14151561242357600080fd5b8260e00151843384612433612ac4565b808481526020018373ffffffffffffffffffffffffffffffffffffffff1673ffffffffffffffffffffffffffffffffffffffff1681526020018273ffffffffffffffffffffffffffffffffffffffff1673ffffffffffffffffffffffffffffffffffffffff16815260200193505050506040518091039082f08015156124b857600080fd5b90509050806001600086815260200190815260200160002060006101000a81548173ffffffffffffffffffffffffffffffffffffffff021916908373ffffffffffffffffffffffffffffffffffffffff16021790555050505050565b60036020528060005260406000206000915054906101000a900473ffffffffffffffffffffffffffffffffffffffff1681565b60005481565b600080612558612991565b600260006003600087815260200190815260200160002060009054906101000a900473ffffffffffffffffffffffffffffffffffffffff1673ffffffffffffffffffffffffffffffffffffffff1673ffffffffffffffffffffffffffffffffffffffff1681526020019081526020016000206000858152602001908152602001600020610160604051908101604052908160008201548152602001600182018054600181600116156101000203166002900480601f01602080910402602001604051908101604052809291908181526020018280546001816001161561010002031660029004801561268b5780601f106126605761010080835404028352916020019161268b565b820191906000526020600020905b81548152906001019060200180831161266e57829003601f168201915b50505050508152602001600282018054600181600116156101000203166002900480601f01602080910402602001604051908101604052809291908181526020018280546001816001161561010002031660029004801561272d5780601f106127025761010080835404028352916020019161272d565b820191906000526020600020905b81548152906001019060200180831161271057829003601f168201915b50505050508152602001600382018054600181600116156101000203166002900480601f0160208091040260200160405190810160405280929190818152602001828054600181600116156101000203166002900480156127cf5780601f106127a4576101008083540402835291602001916127cf565b820191906000526020600020905b8154815290600101906020018083116127b257829003601f168201915b50505050508152602001600482018054600181600116156101000203166002900480601f0160208091040260200160405190810160405280929190818152602001828054600181600116156101000203166002900480156128715780601f1061284657610100808354040283529160200191612871565b820191906000526020600020905b81548152906001019060200180831161285457829003601f168201915b50505050508152602001600582015481526020016006820160009054906101000a900473ffffffffffffffffffffffffffffffffffffffff1673ffffffffffffffffffffffffffffffffffffffff1673ffffffffffffffffffffffffffffffffffffffff16815260200160078201548152602001600882015481526020016009820160009054906101000a900460ff16600281111561290c57fe5b600281111561291757fe5b81526020016009820160019054906101000a900460ff16600181111561293957fe5b600181111561294457fe5b8152505090508060c001518160e001519250925050915091565b60016020528060005260406000206000915054906101000a900473ffffffffffffffffffffffffffffffffffffffff1681565b61016060405190810160405280600081526020016129ad612ad4565b81526020016129ba612ad4565b81526020016129c7612ad4565b81526020016129d4612ad4565b815260200160008152602001600073ffffffffffffffffffffffffffffffffffffffff168152602001600081526020016000815260200160006002811115612a1857fe5b815260200160006001811115612a2a57fe5b81525090565b828054600181600116156101000203166002900490600052602060002090601f016020900481019282601f10612a7157805160ff1916838001178555612a9f565b82800160010185558215612a9f579182015b82811115612a9e578251825591602001919060010190612a83565b5b509050612aac9190612ae8565b5090565b602060405190810160405280600081525090565b6040516109b480612b0e83390190565b602060405190810160405280600081525090565b612b0a91905b80821115612b06576000816000905550600101612aee565b5090565b90560060606040526040516060806109b4833981016040528080519060200190919080519060200190919080519060200190919050508260008190555081600160006101000a81548173ffffffffffffffffffffffffffffffffffffffff021916908373ffffffffffffffffffffffffffffffffffffffff16021790555080600260006101000a81548173ffffffffffffffffffffffffffffffffffffffff021916908373ffffffffffffffffffffffffffffffffffffffff160217905550346003819055506000600460006101000a81548160ff0219169083151502179055507f9e162ec4c9c0745e1a6d90cb006f54311db99223242f6d7cec1672892ed07e20838383604051808481526020018373ffffffffffffffffffffffffffffffffffffffff1673ffffffffffffffffffffffffffffffffffffffff1681526020018273ffffffffffffffffffffffffffffffffffffffff1673ffffffffffffffffffffffffffffffffffffffff168152602001935050505060405180910390a15050506108268061018e6000396000f30060606040526004361061008e576000357c0100000000000000000000000000000000000000000000000000000000900463ffffffff16806307cc09a11461009357806308551a53146100cc57806350bb8731146101215780637150d8ae1461015a578063aa8c217c146101af578063c5ce3911146101d8578063d1a52e3014610201578063f3d259041461022e575b600080fd5b341561009e57600080fd5b6100ca600480803573ffffffffffffffffffffffffffffffffffffffff169060200190919050506102c1565b005b34156100d757600080fd5b6100df6104f5565b604051808273ffffffffffffffffffffffffffffffffffffffff1673ffffffffffffffffffffffffffffffffffffffff16815260200191505060405180910390f35b341561012c57600080fd5b610158600480803573ffffffffffffffffffffffffffffffffffffffff1690602001909190505061051b565b005b341561016557600080fd5b61016d61074f565b604051808273ffffffffffffffffffffffffffffffffffffffff1673ffffffffffffffffffffffffffffffffffffffff16815260200191505060405180910390f35b34156101ba57600080fd5b6101c2610775565b6040518082815260200191505060405180910390f35b34156101e357600080fd5b6101eb61077b565b6040518082815260200191505060405180910390f35b341561020c57600080fd5b610214610781565b604051808215151515815260200191505060405180910390f35b341561023957600080fd5b610241610794565b604051808473ffffffffffffffffffffffffffffffffffffffff1673ffffffffffffffffffffffffffffffffffffffff1681526020018373ffffffffffffffffffffffffffffffffffffffff1673ffffffffffffffffffffffffffffffffffffffff16815260200182151515158152602001935050505060405180910390f35b600460009054906101000a900460ff161515156102dd57600080fd5b600260009054906101000a900473ffffffffffffffffffffffffffffffffffffffff1673ffffffffffffffffffffffffffffffffffffffff168173ffffffffffffffffffffffffffffffffffffffff1614156104f2577fe31e37941fee7dca6bb1597da71841499d8cd0dfc5553e0889f6d1ca6038ce966000548260405180838152602001806020018373ffffffffffffffffffffffffffffffffffffffff1673ffffffffffffffffffffffffffffffffffffffff168152602001828103825260068152602001807f726566756e640000000000000000000000000000000000000000000000000000815250602001935050505060405180910390a1600160009054906101000a900473ffffffffffffffffffffffffffffffffffffffff1673ffffffffffffffffffffffffffffffffffffffff166108fc6003549081150290604051600060405180830381858888f19350505050151561043d57600080fd5b6001600460006101000a81548160ff0219169083151502179055507fdde1058856b8611b1f49ef2ebaef10c0441e48e8a6cbbec1ebdcbfb1862b57b4600054600354600160009054906101000a900473ffffffffffffffffffffffffffffffffffffffff16604051808481526020018381526020018273ffffffffffffffffffffffffffffffffffffffff1673ffffffffffffffffffffffffffffffffffffffff168152602001935050505060405180910390a15b50565b600260009054906101000a900473ffffffffffffffffffffffffffffffffffffffff1681565b600460009054906101000a900460ff1615151561053757600080fd5b600160009054906101000a900473ffffffffffffffffffffffffffffffffffffffff1673ffffffffffffffffffffffffffffffffffffffff168173ffffffffffffffffffffffffffffffffffffffff16141561074c577fe31e37941fee7dca6bb1597da71841499d8cd0dfc5553e0889f6d1ca6038ce966000548260405180838152602001806020018373ffffffffffffffffffffffffffffffffffffffff1673ffffffffffffffffffffffffffffffffffffffff168152602001828103825260078152602001807f72656c6561736500000000000000000000000000000000000000000000000000815250602001935050505060405180910390a1600260009054906101000a900473ffffffffffffffffffffffffffffffffffffffff1673ffffffffffffffffffffffffffffffffffffffff166108fc6003549081150290604051600060405180830381858888f19350505050151561069757600080fd5b6001600460006101000a81548160ff0219169083151502179055507fdde1058856b8611b1f49ef2ebaef10c0441e48e8a6cbbec1ebdcbfb1862b57b4600054600354600260009054906101000a900473ffffffffffffffffffffffffffffffffffffffff16604051808481526020018381526020018273ffffffffffffffffffffffffffffffffffffffff1673ffffffffffffffffffffffffffffffffffffffff168152602001935050505060405180910390a15b50565b600160009054906101000a900473ffffffffffffffffffffffffffffffffffffffff1681565b60035481565b60005481565b600460009054906101000a900460ff1681565b6000806000600160009054906101000a900473ffffffffffffffffffffffffffffffffffffffff16600260009054906101000a900473ffffffffffffffffffffffffffffffffffffffff16600460009054906101000a900460ff169250925092509091925600a165627a7a72305820438acfb13f21031206407b34e0c90b7682a1fa788b8bb4be4c8db1d2404a357a0029a165627a7a72305820f672fa29d61b0556e3c6cd51adae552804c99cbce7fec8203556164a72a40e9c0029",
  "source": "pragma solidity ^0.4.18;\nimport \"contracts/Escrow.sol\";\n\n\ncontract Marketplace {\n    /* ProductStatus[0] == open, ProductStatus[1] == sold etc.. */\n    enum ProductStatus { Open, Sold, Unsold }\n    enum ProductCondition { New, Used }\n\n    uint public productIndex;\n\n    /* every product can have an address to an escrow contract to store a final bid */\n    mapping (uint => address) public productEscrow;\n\n    /* every address can have there own store with listed products, of which every product is a product struct*/\n    /* user adds first product: 0x64fcba11d3dce1e3f781e22ec2b61001d2c652e5 => {1 => \"struct with iphone details\"} */\n    mapping (address => mapping(uint => Product)) public stores;\n\n    /* which products are in whose store */\n    mapping (uint => address) public productIdInStore;\n\n    /* contract constructor */\n    function Marketplace() public {\n        productIndex = 0;\n    }\n\n    /* event to which the server can listen and then copy the data to mongo when a new product is added */\n    event NewProduct(uint _productId, string _name, string _category, string _imageLink, string _descLink,\n        uint _startPrice, uint _productCondition);\n\n    event NewBid(address _bidder, uint _productId, uint _amount);\n\n    struct Product {\n        uint id;\n        string name;\n        string category;\n        string imageLink;\n        string descLink;\n        uint startPrice;\n        address highestBidder;\n        uint highestBid;\n        uint totalBids;\n        ProductStatus status;\n        ProductCondition condition;\n        mapping (address => Bid) bids;\n    }\n\n    /* add new product */\n    function addProduct(string _name, string _category, string _imageLink, string _descLink, uint _startPrice,\n        uint _productCondition) public {\n\n        productIndex += 1;\n\n        /* create new product with arguments as input */\n        Product memory product = Product(productIndex, _name, _category, _imageLink, _descLink, _startPrice, 0, 0, 0,\n        ProductStatus.Open, ProductCondition(_productCondition));\n\n        /* address->productIndex->product */\n        stores[msg.sender][productIndex] = product;\n\n        /* productIndex->address */\n        productIdInStore[productIndex] = msg.sender;\n\n        /* trigger event to let the front-end know that a new product has been added */\n        NewProduct(productIndex, _name, _category, _imageLink, _descLink, _startPrice, _productCondition);\n    }\n\n    function getProduct(uint _productId) public view returns (uint, string, string, string, string, uint,\n        ProductStatus, ProductCondition, uint, uint) {\n\n        /* fist get address with productnumber, then get the product with that address and id */\n        Product memory product = stores[productIdInStore[_productId]][_productId];\n\n        return (product.id, product.name, product.category, product.imageLink, product.descLink,\n        product.startPrice, product.status, product.condition, product.totalBids, product.highestBid);\n    }\n\n    struct Bid {\n        address bidder;\n        uint productId;\n        uint amount;\n    }\n\n    /* bid on a product */\n    function bid(uint _productId) public payable returns (bool) {\n        Product storage product = stores[productIdInStore[_productId]][_productId];\n\n        require(msg.value > product.startPrice && msg.value > product.highestBid);\n        require(product.bids[msg.sender].bidder == 0);\n\n        if (msg.value > product.highestBid) {\n            product.highestBid = msg.value;\n            product.highestBidder = msg.sender;\n        }\n\n        product.bids[msg.sender] = Bid(msg.sender, _productId, msg.value);\n\n        product.totalBids += 1;\n\n        NewBid(msg.sender, _productId, msg.value);\n\n        return true;\n    }\n\n    /* see who is the current hightest bidder with the highest bid */\n    function highestBidderInfo(uint _productId) public view returns (address, uint) {\n        Product memory product = stores[productIdInStore[_productId]][_productId];\n        return (product.highestBidder, product.highestBid);\n    }\n\n    /* return the total number of bids on a product */\n    function totalBids(uint _productId) public view returns (uint) {\n        Product memory product = stores[productIdInStore[_productId]][_productId];\n        return product.totalBids;\n    }\n\n    /* close the auction */\n    function closeAuction(uint _productId) public {\n        Product storage product = stores[productIdInStore[_productId]][_productId];\n\n        require(productIdInStore[_productId] == msg.sender);\n        require(product.status == ProductStatus.Open);\n\n        if (product.totalBids == 0) {\n            product.status = ProductStatus.Unsold;\n        } else {\n            /* Create new escrow contract */\n            /* Escrow escrow = (new Escrow).value(product.highestBid)(_productId, product.highestBidder, msg.sender); */\n\n            /* Link the escrow contract to the product */\n            /* productEscrow[_productId] = address(escrow); */\n            product.status = ProductStatus.Sold;\n\n        }\n    }\n\n    /* if you are the buyer and highestbidder and the contract has been closed, you send the money to the escrow */\n    function sendToEscrow(uint _productId) public {\n        Product memory product = stores[productIdInStore[_productId]][_productId];\n\n        var contractOwner = productIdInStore[_productId];\n\n        require(product.highestBidder == msg.sender);\n        require(product.status == ProductStatus.Sold);\n\n        Escrow escrow = (new Escrow).value(product.highestBid)(_productId, msg.sender, contractOwner);\n        productEscrow[_productId] = address(escrow);\n    }\n\n    /* get the escrow contract address for a product */\n    function escrowAddresForProduct(uint _productId) public view returns (address) {\n        return productEscrow[_productId];\n    }\n\n    /* get all the info on the escrow contract (buyer, seller, fundsDisbursed yes/no) */\n    function escrowInfo(uint _productId) public view returns (address, address, bool) {\n        return Escrow(productEscrow[_productId]).escrowInfo();\n    }\n\n    /* give the funds in the escrow contract to the seller */\n    function releaseToSeller(uint _productId) public {\n        Escrow(productEscrow[_productId]).releaseToSeller(msg.sender);\n    }\n\n    /* refund the funds in the escrow contract to the buyer */\n    function refundToBuyer(uint _productId) public {\n        Escrow(productEscrow[_productId]).refundToBuyer(msg.sender);\n    }\n}\n",
  "sourcePath": "/Users/yannickvisbeek/Documents/Studie/BSSA/Final_Project/Marktplaats/contracts/Marketplace.sol",
  "compiler": {
    "name": "solc",
    "version": "0.4.18+commit.9cf6e910.Emscripten.clang"
  },
  "schemaVersion": "1.0.1",
  "updatedAt": "2018-01-18T11:38:41.830Z"
}